{
  "contracts/Federator.sol": {
    "Federator": {
      "abi": [
        {
          "inputs": [
            {
              "internalType": "int256[]",
              "name": "model_parameters",
              "type": "int256[]"
            },
            {
              "internalType": "int256[]",
              "name": "model_structure",
              "type": "int256[]"
            }
          ],
          "stateMutability": "nonpayable",
          "type": "constructor"
        },
        {
          "inputs": [],
          "name": "batch_size",
          "outputs": [
            {
              "internalType": "int256",
              "name": "",
              "type": "int256"
            }
          ],
          "stateMutability": "view",
          "type": "function"
        },
        {
          "inputs": [
            {
              "internalType": "uint256",
              "name": "",
              "type": "uint256"
            }
          ],
          "name": "dimensions",
          "outputs": [
            {
              "internalType": "int256",
              "name": "",
              "type": "int256"
            }
          ],
          "stateMutability": "view",
          "type": "function"
        },
        {
          "inputs": [],
          "name": "get_weights",
          "outputs": [
            {
              "internalType": "int256[]",
              "name": "weights",
              "type": "int256[]"
            }
          ],
          "stateMutability": "view",
          "type": "function"
        },
        {
          "inputs": [
            {
              "internalType": "uint256",
              "name": "",
              "type": "uint256"
            }
          ],
          "name": "global_model_parameters",
          "outputs": [
            {
              "internalType": "int256",
              "name": "",
              "type": "int256"
            }
          ],
          "stateMutability": "view",
          "type": "function"
        },
        {
          "inputs": [
            {
              "internalType": "uint256",
              "name": "",
              "type": "uint256"
            }
          ],
          "name": "running_model_parameters",
          "outputs": [
            {
              "internalType": "int256",
              "name": "",
              "type": "int256"
            }
          ],
          "stateMutability": "view",
          "type": "function"
        },
        {
          "inputs": [
            {
              "internalType": "int256[]",
              "name": "new_model_parameters",
              "type": "int256[]"
            }
          ],
          "name": "update_model",
          "outputs": [],
          "stateMutability": "nonpayable",
          "type": "function"
        }
      ],
      "evm": {
        "bytecode": {
          "linkReferences": {},
          "object": "60806040523480156200001157600080fd5b5060405162000e0b38038062000e0b8339818101604052810190620000379190620003a5565b81600090805190602001906200004f92919062000170565b5081600190805190602001906200006892919062000170565b50805167ffffffffffffffff8111156200008757620000866200020b565b5b604051908082528060200260200182016040528015620000b65781602001602082028036833780820191505090505b5060029080519060200190620000ce92919062000170565b5060005b81518161ffff1610156200014157818161ffff1681518110620000fa57620000f96200042a565b5b602002602001015160028261ffff16815481106200011d576200011c6200042a565b5b90600052602060002001819055508080620001389062000496565b915050620000d2565b5060006003819055506000600460006101000a81548161ffff021916908361ffff1602179055505050620004c5565b828054828255906000526020600020908101928215620001af579160200282015b82811115620001ae57825182559160200191906001019062000191565b5b509050620001be9190620001c2565b5090565b5b80821115620001dd576000816000905550600101620001c3565b5090565b6000604051905090565b600080fd5b600080fd5b600080fd5b6000601f19601f8301169050919050565b7f4e487b7100000000000000000000000000000000000000000000000000000000600052604160045260246000fd5b6200024582620001fa565b810181811067ffffffffffffffff821117156200026757620002666200020b565b5b80604052505050565b60006200027c620001e1565b90506200028a82826200023a565b919050565b600067ffffffffffffffff821115620002ad57620002ac6200020b565b5b602082029050602081019050919050565b600080fd5b6000819050919050565b620002d881620002c3565b8114620002e457600080fd5b50565b600081519050620002f881620002cd565b92915050565b6000620003156200030f846200028f565b62000270565b905080838252602082019050602084028301858111156200033b576200033a620002be565b5b835b81811015620003685780620003538882620002e7565b8452602084019350506020810190506200033d565b5050509392505050565b600082601f8301126200038a5762000389620001f5565b5b81516200039c848260208601620002fe565b91505092915050565b60008060408385031215620003bf57620003be620001eb565b5b600083015167ffffffffffffffff811115620003e057620003df620001f0565b5b620003ee8582860162000372565b925050602083015167ffffffffffffffff811115620004125762000411620001f0565b5b620004208582860162000372565b9150509250929050565b7f4e487b7100000000000000000000000000000000000000000000000000000000600052603260045260246000fd5b7f4e487b7100000000000000000000000000000000000000000000000000000000600052601160045260246000fd5b600061ffff82169050919050565b6000620004a38262000488565b915061ffff8203620004ba57620004b962000459565b5b600182019050919050565b61093680620004d56000396000f3fe608060405234801561001057600080fd5b50600436106100625760003560e01c806314a1ca871461006757806324eb95fe146100975780632ffa0a51146100c75780633a52968e146100f75780638fff5fce14610115578063c957accb14610131575b600080fd5b610081600480360381019061007c91906103dd565b61014f565b60405161008e9190610423565b60405180910390f35b6100b160048036038101906100ac91906103dd565b610173565b6040516100be9190610423565b60405180910390f35b6100e160048036038101906100dc91906103dd565b610197565b6040516100ee9190610423565b60405180910390f35b6100ff6101bb565b60405161010c9190610423565b60405180910390f35b61012f600480360381019061012a91906104a3565b6101c1565b005b6101396102d6565b60405161014691906105ae565b60405180910390f35b6000818154811061015f57600080fd5b906000526020600020016000915090505481565b6002818154811061018357600080fd5b906000526020600020016000915090505481565b600181815481106101a757600080fd5b906000526020600020016000915090505481565b60035481565b600a6003540361022457600160009080546101dd92919061032e565b5060006003819055506001600460009054906101000a900461ffff16610203919061060d565b600460006101000a81548161ffff021916908361ffff1602179055506102d2565b60005b828290508110156102d05760016003546102419190610645565b60035460018381548110610258576102576106d9565b5b906000526020600020015461026d9190610708565b8484848181106102805761027f6106d9565b5b905060200201356102919190610645565b61029b919061084e565b600182815481106102af576102ae6106d9565b5b906000526020600020018190555080806102c8906108b8565b915050610227565b505b5050565b6060600080548060200260200160405190810160405280929190818152602001828054801561032457602002820191906000526020600020905b815481526020019060010190808311610310575b5050505050905090565b82805482825590600052602060002090810192821561036f5760005260206000209182015b8281111561036e578254825591600101919060010190610353565b5b50905061037c9190610380565b5090565b5b80821115610399576000816000905550600101610381565b5090565b600080fd5b600080fd5b6000819050919050565b6103ba816103a7565b81146103c557600080fd5b50565b6000813590506103d7816103b1565b92915050565b6000602082840312156103f3576103f261039d565b5b6000610401848285016103c8565b91505092915050565b6000819050919050565b61041d8161040a565b82525050565b60006020820190506104386000830184610414565b92915050565b600080fd5b600080fd5b600080fd5b60008083601f8401126104635761046261043e565b5b8235905067ffffffffffffffff8111156104805761047f610443565b5b60208301915083602082028301111561049c5761049b610448565b5b9250929050565b600080602083850312156104ba576104b961039d565b5b600083013567ffffffffffffffff8111156104d8576104d76103a2565b5b6104e48582860161044d565b92509250509250929050565b600081519050919050565b600082825260208201905092915050565b6000819050602082019050919050565b6105258161040a565b82525050565b6000610537838361051c565b60208301905092915050565b6000602082019050919050565b600061055b826104f0565b61056581856104fb565b93506105708361050c565b8060005b838110156105a1578151610588888261052b565b975061059383610543565b925050600181019050610574565b5085935050505092915050565b600060208201905081810360008301526105c88184610550565b905092915050565b600061ffff82169050919050565b7f4e487b7100000000000000000000000000000000000000000000000000000000600052601160045260246000fd5b6000610618826105d0565b9150610623836105d0565b92508261ffff0382111561063a576106396105de565b5b828201905092915050565b60006106508261040a565b915061065b8361040a565b9250817f7fffffffffffffffffffffffffffffffffffffffffffffffffffffffffffffff03831360008312151615610696576106956105de565b5b817f80000000000000000000000000000000000000000000000000000000000000000383126000831216156106ce576106cd6105de565b5b828201905092915050565b7f4e487b7100000000000000000000000000000000000000000000000000000000600052603260045260246000fd5b60006107138261040a565b915061071e8361040a565b9250827f7fffffffffffffffffffffffffffffffffffffffffffffffffffffffffffffff048211600084136000841316161561075d5761075c6105de565b5b817f8000000000000000000000000000000000000000000000000000000000000000058312600084126000841316161561079a576107996105de565b5b827f800000000000000000000000000000000000000000000000000000000000000005821260008413600084121616156107d7576107d66105de565b5b827f7fffffffffffffffffffffffffffffffffffffffffffffffffffffffffffffff0582126000841260008412161615610814576108136105de565b5b828202905092915050565b7f4e487b7100000000000000000000000000000000000000000000000000000000600052601260045260246000fd5b60006108598261040a565b91506108648361040a565b9250826108745761087361081f565b5b600160000383147f8000000000000000000000000000000000000000000000000000000000000000831416156108ad576108ac6105de565b5b828205905092915050565b60006108c3826103a7565b91507fffffffffffffffffffffffffffffffffffffffffffffffffffffffffffffffff82036108f5576108f46105de565b5b60018201905091905056fea26469706673582212208764adbe5359c629615e77e692050121864dc37b2c2fb2d6755ac02d99a4f6ee64736f6c634300080d0033",
          "opcodes": "PUSH1 0x80 PUSH1 0x40 MSTORE CALLVALUE DUP1 ISZERO PUSH3 0x11 JUMPI PUSH1 0x0 DUP1 REVERT JUMPDEST POP PUSH1 0x40 MLOAD PUSH3 0xE0B CODESIZE SUB DUP1 PUSH3 0xE0B DUP4 CODECOPY DUP2 DUP2 ADD PUSH1 0x40 MSTORE DUP2 ADD SWAP1 PUSH3 0x37 SWAP2 SWAP1 PUSH3 0x3A5 JUMP JUMPDEST DUP2 PUSH1 0x0 SWAP1 DUP1 MLOAD SWAP1 PUSH1 0x20 ADD SWAP1 PUSH3 0x4F SWAP3 SWAP2 SWAP1 PUSH3 0x170 JUMP JUMPDEST POP DUP2 PUSH1 0x1 SWAP1 DUP1 MLOAD SWAP1 PUSH1 0x20 ADD SWAP1 PUSH3 0x68 SWAP3 SWAP2 SWAP1 PUSH3 0x170 JUMP JUMPDEST POP DUP1 MLOAD PUSH8 0xFFFFFFFFFFFFFFFF DUP2 GT ISZERO PUSH3 0x87 JUMPI PUSH3 0x86 PUSH3 0x20B JUMP JUMPDEST JUMPDEST PUSH1 0x40 MLOAD SWAP1 DUP1 DUP3 MSTORE DUP1 PUSH1 0x20 MUL PUSH1 0x20 ADD DUP3 ADD PUSH1 0x40 MSTORE DUP1 ISZERO PUSH3 0xB6 JUMPI DUP2 PUSH1 0x20 ADD PUSH1 0x20 DUP3 MUL DUP1 CALLDATASIZE DUP4 CALLDATACOPY DUP1 DUP3 ADD SWAP2 POP POP SWAP1 POP JUMPDEST POP PUSH1 0x2 SWAP1 DUP1 MLOAD SWAP1 PUSH1 0x20 ADD SWAP1 PUSH3 0xCE SWAP3 SWAP2 SWAP1 PUSH3 0x170 JUMP JUMPDEST POP PUSH1 0x0 JUMPDEST DUP2 MLOAD DUP2 PUSH2 0xFFFF AND LT ISZERO PUSH3 0x141 JUMPI DUP2 DUP2 PUSH2 0xFFFF AND DUP2 MLOAD DUP2 LT PUSH3 0xFA JUMPI PUSH3 0xF9 PUSH3 0x42A JUMP JUMPDEST JUMPDEST PUSH1 0x20 MUL PUSH1 0x20 ADD ADD MLOAD PUSH1 0x2 DUP3 PUSH2 0xFFFF AND DUP2 SLOAD DUP2 LT PUSH3 0x11D JUMPI PUSH3 0x11C PUSH3 0x42A JUMP JUMPDEST JUMPDEST SWAP1 PUSH1 0x0 MSTORE PUSH1 0x20 PUSH1 0x0 KECCAK256 ADD DUP2 SWAP1 SSTORE POP DUP1 DUP1 PUSH3 0x138 SWAP1 PUSH3 0x496 JUMP JUMPDEST SWAP2 POP POP PUSH3 0xD2 JUMP JUMPDEST POP PUSH1 0x0 PUSH1 0x3 DUP2 SWAP1 SSTORE POP PUSH1 0x0 PUSH1 0x4 PUSH1 0x0 PUSH2 0x100 EXP DUP2 SLOAD DUP2 PUSH2 0xFFFF MUL NOT AND SWAP1 DUP4 PUSH2 0xFFFF AND MUL OR SWAP1 SSTORE POP POP POP PUSH3 0x4C5 JUMP JUMPDEST DUP3 DUP1 SLOAD DUP3 DUP3 SSTORE SWAP1 PUSH1 0x0 MSTORE PUSH1 0x20 PUSH1 0x0 KECCAK256 SWAP1 DUP2 ADD SWAP3 DUP3 ISZERO PUSH3 0x1AF JUMPI SWAP2 PUSH1 0x20 MUL DUP3 ADD JUMPDEST DUP3 DUP2 GT ISZERO PUSH3 0x1AE JUMPI DUP3 MLOAD DUP3 SSTORE SWAP2 PUSH1 0x20 ADD SWAP2 SWAP1 PUSH1 0x1 ADD SWAP1 PUSH3 0x191 JUMP JUMPDEST JUMPDEST POP SWAP1 POP PUSH3 0x1BE SWAP2 SWAP1 PUSH3 0x1C2 JUMP JUMPDEST POP SWAP1 JUMP JUMPDEST JUMPDEST DUP1 DUP3 GT ISZERO PUSH3 0x1DD JUMPI PUSH1 0x0 DUP2 PUSH1 0x0 SWAP1 SSTORE POP PUSH1 0x1 ADD PUSH3 0x1C3 JUMP JUMPDEST POP SWAP1 JUMP JUMPDEST PUSH1 0x0 PUSH1 0x40 MLOAD SWAP1 POP SWAP1 JUMP JUMPDEST PUSH1 0x0 DUP1 REVERT JUMPDEST PUSH1 0x0 DUP1 REVERT JUMPDEST PUSH1 0x0 DUP1 REVERT JUMPDEST PUSH1 0x0 PUSH1 0x1F NOT PUSH1 0x1F DUP4 ADD AND SWAP1 POP SWAP2 SWAP1 POP JUMP JUMPDEST PUSH32 0x4E487B7100000000000000000000000000000000000000000000000000000000 PUSH1 0x0 MSTORE PUSH1 0x41 PUSH1 0x4 MSTORE PUSH1 0x24 PUSH1 0x0 REVERT JUMPDEST PUSH3 0x245 DUP3 PUSH3 0x1FA JUMP JUMPDEST DUP2 ADD DUP2 DUP2 LT PUSH8 0xFFFFFFFFFFFFFFFF DUP3 GT OR ISZERO PUSH3 0x267 JUMPI PUSH3 0x266 PUSH3 0x20B JUMP JUMPDEST JUMPDEST DUP1 PUSH1 0x40 MSTORE POP POP POP JUMP JUMPDEST PUSH1 0x0 PUSH3 0x27C PUSH3 0x1E1 JUMP JUMPDEST SWAP1 POP PUSH3 0x28A DUP3 DUP3 PUSH3 0x23A JUMP JUMPDEST SWAP2 SWAP1 POP JUMP JUMPDEST PUSH1 0x0 PUSH8 0xFFFFFFFFFFFFFFFF DUP3 GT ISZERO PUSH3 0x2AD JUMPI PUSH3 0x2AC PUSH3 0x20B JUMP JUMPDEST JUMPDEST PUSH1 0x20 DUP3 MUL SWAP1 POP PUSH1 0x20 DUP2 ADD SWAP1 POP SWAP2 SWAP1 POP JUMP JUMPDEST PUSH1 0x0 DUP1 REVERT JUMPDEST PUSH1 0x0 DUP2 SWAP1 POP SWAP2 SWAP1 POP JUMP JUMPDEST PUSH3 0x2D8 DUP2 PUSH3 0x2C3 JUMP JUMPDEST DUP2 EQ PUSH3 0x2E4 JUMPI PUSH1 0x0 DUP1 REVERT JUMPDEST POP JUMP JUMPDEST PUSH1 0x0 DUP2 MLOAD SWAP1 POP PUSH3 0x2F8 DUP2 PUSH3 0x2CD JUMP JUMPDEST SWAP3 SWAP2 POP POP JUMP JUMPDEST PUSH1 0x0 PUSH3 0x315 PUSH3 0x30F DUP5 PUSH3 0x28F JUMP JUMPDEST PUSH3 0x270 JUMP JUMPDEST SWAP1 POP DUP1 DUP4 DUP3 MSTORE PUSH1 0x20 DUP3 ADD SWAP1 POP PUSH1 0x20 DUP5 MUL DUP4 ADD DUP6 DUP2 GT ISZERO PUSH3 0x33B JUMPI PUSH3 0x33A PUSH3 0x2BE JUMP JUMPDEST JUMPDEST DUP4 JUMPDEST DUP2 DUP2 LT ISZERO PUSH3 0x368 JUMPI DUP1 PUSH3 0x353 DUP9 DUP3 PUSH3 0x2E7 JUMP JUMPDEST DUP5 MSTORE PUSH1 0x20 DUP5 ADD SWAP4 POP POP PUSH1 0x20 DUP2 ADD SWAP1 POP PUSH3 0x33D JUMP JUMPDEST POP POP POP SWAP4 SWAP3 POP POP POP JUMP JUMPDEST PUSH1 0x0 DUP3 PUSH1 0x1F DUP4 ADD SLT PUSH3 0x38A JUMPI PUSH3 0x389 PUSH3 0x1F5 JUMP JUMPDEST JUMPDEST DUP2 MLOAD PUSH3 0x39C DUP5 DUP3 PUSH1 0x20 DUP7 ADD PUSH3 0x2FE JUMP JUMPDEST SWAP2 POP POP SWAP3 SWAP2 POP POP JUMP JUMPDEST PUSH1 0x0 DUP1 PUSH1 0x40 DUP4 DUP6 SUB SLT ISZERO PUSH3 0x3BF JUMPI PUSH3 0x3BE PUSH3 0x1EB JUMP JUMPDEST JUMPDEST PUSH1 0x0 DUP4 ADD MLOAD PUSH8 0xFFFFFFFFFFFFFFFF DUP2 GT ISZERO PUSH3 0x3E0 JUMPI PUSH3 0x3DF PUSH3 0x1F0 JUMP JUMPDEST JUMPDEST PUSH3 0x3EE DUP6 DUP3 DUP7 ADD PUSH3 0x372 JUMP JUMPDEST SWAP3 POP POP PUSH1 0x20 DUP4 ADD MLOAD PUSH8 0xFFFFFFFFFFFFFFFF DUP2 GT ISZERO PUSH3 0x412 JUMPI PUSH3 0x411 PUSH3 0x1F0 JUMP JUMPDEST JUMPDEST PUSH3 0x420 DUP6 DUP3 DUP7 ADD PUSH3 0x372 JUMP JUMPDEST SWAP2 POP POP SWAP3 POP SWAP3 SWAP1 POP JUMP JUMPDEST PUSH32 0x4E487B7100000000000000000000000000000000000000000000000000000000 PUSH1 0x0 MSTORE PUSH1 0x32 PUSH1 0x4 MSTORE PUSH1 0x24 PUSH1 0x0 REVERT JUMPDEST PUSH32 0x4E487B7100000000000000000000000000000000000000000000000000000000 PUSH1 0x0 MSTORE PUSH1 0x11 PUSH1 0x4 MSTORE PUSH1 0x24 PUSH1 0x0 REVERT JUMPDEST PUSH1 0x0 PUSH2 0xFFFF DUP3 AND SWAP1 POP SWAP2 SWAP1 POP JUMP JUMPDEST PUSH1 0x0 PUSH3 0x4A3 DUP3 PUSH3 0x488 JUMP JUMPDEST SWAP2 POP PUSH2 0xFFFF DUP3 SUB PUSH3 0x4BA JUMPI PUSH3 0x4B9 PUSH3 0x459 JUMP JUMPDEST JUMPDEST PUSH1 0x1 DUP3 ADD SWAP1 POP SWAP2 SWAP1 POP JUMP JUMPDEST PUSH2 0x936 DUP1 PUSH3 0x4D5 PUSH1 0x0 CODECOPY PUSH1 0x0 RETURN INVALID PUSH1 0x80 PUSH1 0x40 MSTORE CALLVALUE DUP1 ISZERO PUSH2 0x10 JUMPI PUSH1 0x0 DUP1 REVERT JUMPDEST POP PUSH1 0x4 CALLDATASIZE LT PUSH2 0x62 JUMPI PUSH1 0x0 CALLDATALOAD PUSH1 0xE0 SHR DUP1 PUSH4 0x14A1CA87 EQ PUSH2 0x67 JUMPI DUP1 PUSH4 0x24EB95FE EQ PUSH2 0x97 JUMPI DUP1 PUSH4 0x2FFA0A51 EQ PUSH2 0xC7 JUMPI DUP1 PUSH4 0x3A52968E EQ PUSH2 0xF7 JUMPI DUP1 PUSH4 0x8FFF5FCE EQ PUSH2 0x115 JUMPI DUP1 PUSH4 0xC957ACCB EQ PUSH2 0x131 JUMPI JUMPDEST PUSH1 0x0 DUP1 REVERT JUMPDEST PUSH2 0x81 PUSH1 0x4 DUP1 CALLDATASIZE SUB DUP2 ADD SWAP1 PUSH2 0x7C SWAP2 SWAP1 PUSH2 0x3DD JUMP JUMPDEST PUSH2 0x14F JUMP JUMPDEST PUSH1 0x40 MLOAD PUSH2 0x8E SWAP2 SWAP1 PUSH2 0x423 JUMP JUMPDEST PUSH1 0x40 MLOAD DUP1 SWAP2 SUB SWAP1 RETURN JUMPDEST PUSH2 0xB1 PUSH1 0x4 DUP1 CALLDATASIZE SUB DUP2 ADD SWAP1 PUSH2 0xAC SWAP2 SWAP1 PUSH2 0x3DD JUMP JUMPDEST PUSH2 0x173 JUMP JUMPDEST PUSH1 0x40 MLOAD PUSH2 0xBE SWAP2 SWAP1 PUSH2 0x423 JUMP JUMPDEST PUSH1 0x40 MLOAD DUP1 SWAP2 SUB SWAP1 RETURN JUMPDEST PUSH2 0xE1 PUSH1 0x4 DUP1 CALLDATASIZE SUB DUP2 ADD SWAP1 PUSH2 0xDC SWAP2 SWAP1 PUSH2 0x3DD JUMP JUMPDEST PUSH2 0x197 JUMP JUMPDEST PUSH1 0x40 MLOAD PUSH2 0xEE SWAP2 SWAP1 PUSH2 0x423 JUMP JUMPDEST PUSH1 0x40 MLOAD DUP1 SWAP2 SUB SWAP1 RETURN JUMPDEST PUSH2 0xFF PUSH2 0x1BB JUMP JUMPDEST PUSH1 0x40 MLOAD PUSH2 0x10C SWAP2 SWAP1 PUSH2 0x423 JUMP JUMPDEST PUSH1 0x40 MLOAD DUP1 SWAP2 SUB SWAP1 RETURN JUMPDEST PUSH2 0x12F PUSH1 0x4 DUP1 CALLDATASIZE SUB DUP2 ADD SWAP1 PUSH2 0x12A SWAP2 SWAP1 PUSH2 0x4A3 JUMP JUMPDEST PUSH2 0x1C1 JUMP JUMPDEST STOP JUMPDEST PUSH2 0x139 PUSH2 0x2D6 JUMP JUMPDEST PUSH1 0x40 MLOAD PUSH2 0x146 SWAP2 SWAP1 PUSH2 0x5AE JUMP JUMPDEST PUSH1 0x40 MLOAD DUP1 SWAP2 SUB SWAP1 RETURN JUMPDEST PUSH1 0x0 DUP2 DUP2 SLOAD DUP2 LT PUSH2 0x15F JUMPI PUSH1 0x0 DUP1 REVERT JUMPDEST SWAP1 PUSH1 0x0 MSTORE PUSH1 0x20 PUSH1 0x0 KECCAK256 ADD PUSH1 0x0 SWAP2 POP SWAP1 POP SLOAD DUP2 JUMP JUMPDEST PUSH1 0x2 DUP2 DUP2 SLOAD DUP2 LT PUSH2 0x183 JUMPI PUSH1 0x0 DUP1 REVERT JUMPDEST SWAP1 PUSH1 0x0 MSTORE PUSH1 0x20 PUSH1 0x0 KECCAK256 ADD PUSH1 0x0 SWAP2 POP SWAP1 POP SLOAD DUP2 JUMP JUMPDEST PUSH1 0x1 DUP2 DUP2 SLOAD DUP2 LT PUSH2 0x1A7 JUMPI PUSH1 0x0 DUP1 REVERT JUMPDEST SWAP1 PUSH1 0x0 MSTORE PUSH1 0x20 PUSH1 0x0 KECCAK256 ADD PUSH1 0x0 SWAP2 POP SWAP1 POP SLOAD DUP2 JUMP JUMPDEST PUSH1 0x3 SLOAD DUP2 JUMP JUMPDEST PUSH1 0xA PUSH1 0x3 SLOAD SUB PUSH2 0x224 JUMPI PUSH1 0x1 PUSH1 0x0 SWAP1 DUP1 SLOAD PUSH2 0x1DD SWAP3 SWAP2 SWAP1 PUSH2 0x32E JUMP JUMPDEST POP PUSH1 0x0 PUSH1 0x3 DUP2 SWAP1 SSTORE POP PUSH1 0x1 PUSH1 0x4 PUSH1 0x0 SWAP1 SLOAD SWAP1 PUSH2 0x100 EXP SWAP1 DIV PUSH2 0xFFFF AND PUSH2 0x203 SWAP2 SWAP1 PUSH2 0x60D JUMP JUMPDEST PUSH1 0x4 PUSH1 0x0 PUSH2 0x100 EXP DUP2 SLOAD DUP2 PUSH2 0xFFFF MUL NOT AND SWAP1 DUP4 PUSH2 0xFFFF AND MUL OR SWAP1 SSTORE POP PUSH2 0x2D2 JUMP JUMPDEST PUSH1 0x0 JUMPDEST DUP3 DUP3 SWAP1 POP DUP2 LT ISZERO PUSH2 0x2D0 JUMPI PUSH1 0x1 PUSH1 0x3 SLOAD PUSH2 0x241 SWAP2 SWAP1 PUSH2 0x645 JUMP JUMPDEST PUSH1 0x3 SLOAD PUSH1 0x1 DUP4 DUP2 SLOAD DUP2 LT PUSH2 0x258 JUMPI PUSH2 0x257 PUSH2 0x6D9 JUMP JUMPDEST JUMPDEST SWAP1 PUSH1 0x0 MSTORE PUSH1 0x20 PUSH1 0x0 KECCAK256 ADD SLOAD PUSH2 0x26D SWAP2 SWAP1 PUSH2 0x708 JUMP JUMPDEST DUP5 DUP5 DUP5 DUP2 DUP2 LT PUSH2 0x280 JUMPI PUSH2 0x27F PUSH2 0x6D9 JUMP JUMPDEST JUMPDEST SWAP1 POP PUSH1 0x20 MUL ADD CALLDATALOAD PUSH2 0x291 SWAP2 SWAP1 PUSH2 0x645 JUMP JUMPDEST PUSH2 0x29B SWAP2 SWAP1 PUSH2 0x84E JUMP JUMPDEST PUSH1 0x1 DUP3 DUP2 SLOAD DUP2 LT PUSH2 0x2AF JUMPI PUSH2 0x2AE PUSH2 0x6D9 JUMP JUMPDEST JUMPDEST SWAP1 PUSH1 0x0 MSTORE PUSH1 0x20 PUSH1 0x0 KECCAK256 ADD DUP2 SWAP1 SSTORE POP DUP1 DUP1 PUSH2 0x2C8 SWAP1 PUSH2 0x8B8 JUMP JUMPDEST SWAP2 POP POP PUSH2 0x227 JUMP JUMPDEST POP JUMPDEST POP POP JUMP JUMPDEST PUSH1 0x60 PUSH1 0x0 DUP1 SLOAD DUP1 PUSH1 0x20 MUL PUSH1 0x20 ADD PUSH1 0x40 MLOAD SWAP1 DUP2 ADD PUSH1 0x40 MSTORE DUP1 SWAP3 SWAP2 SWAP1 DUP2 DUP2 MSTORE PUSH1 0x20 ADD DUP3 DUP1 SLOAD DUP1 ISZERO PUSH2 0x324 JUMPI PUSH1 0x20 MUL DUP3 ADD SWAP2 SWAP1 PUSH1 0x0 MSTORE PUSH1 0x20 PUSH1 0x0 KECCAK256 SWAP1 JUMPDEST DUP2 SLOAD DUP2 MSTORE PUSH1 0x20 ADD SWAP1 PUSH1 0x1 ADD SWAP1 DUP1 DUP4 GT PUSH2 0x310 JUMPI JUMPDEST POP POP POP POP POP SWAP1 POP SWAP1 JUMP JUMPDEST DUP3 DUP1 SLOAD DUP3 DUP3 SSTORE SWAP1 PUSH1 0x0 MSTORE PUSH1 0x20 PUSH1 0x0 KECCAK256 SWAP1 DUP2 ADD SWAP3 DUP3 ISZERO PUSH2 0x36F JUMPI PUSH1 0x0 MSTORE PUSH1 0x20 PUSH1 0x0 KECCAK256 SWAP2 DUP3 ADD JUMPDEST DUP3 DUP2 GT ISZERO PUSH2 0x36E JUMPI DUP3 SLOAD DUP3 SSTORE SWAP2 PUSH1 0x1 ADD SWAP2 SWAP1 PUSH1 0x1 ADD SWAP1 PUSH2 0x353 JUMP JUMPDEST JUMPDEST POP SWAP1 POP PUSH2 0x37C SWAP2 SWAP1 PUSH2 0x380 JUMP JUMPDEST POP SWAP1 JUMP JUMPDEST JUMPDEST DUP1 DUP3 GT ISZERO PUSH2 0x399 JUMPI PUSH1 0x0 DUP2 PUSH1 0x0 SWAP1 SSTORE POP PUSH1 0x1 ADD PUSH2 0x381 JUMP JUMPDEST POP SWAP1 JUMP JUMPDEST PUSH1 0x0 DUP1 REVERT JUMPDEST PUSH1 0x0 DUP1 REVERT JUMPDEST PUSH1 0x0 DUP2 SWAP1 POP SWAP2 SWAP1 POP JUMP JUMPDEST PUSH2 0x3BA DUP2 PUSH2 0x3A7 JUMP JUMPDEST DUP2 EQ PUSH2 0x3C5 JUMPI PUSH1 0x0 DUP1 REVERT JUMPDEST POP JUMP JUMPDEST PUSH1 0x0 DUP2 CALLDATALOAD SWAP1 POP PUSH2 0x3D7 DUP2 PUSH2 0x3B1 JUMP JUMPDEST SWAP3 SWAP2 POP POP JUMP JUMPDEST PUSH1 0x0 PUSH1 0x20 DUP3 DUP5 SUB SLT ISZERO PUSH2 0x3F3 JUMPI PUSH2 0x3F2 PUSH2 0x39D JUMP JUMPDEST JUMPDEST PUSH1 0x0 PUSH2 0x401 DUP5 DUP3 DUP6 ADD PUSH2 0x3C8 JUMP JUMPDEST SWAP2 POP POP SWAP3 SWAP2 POP POP JUMP JUMPDEST PUSH1 0x0 DUP2 SWAP1 POP SWAP2 SWAP1 POP JUMP JUMPDEST PUSH2 0x41D DUP2 PUSH2 0x40A JUMP JUMPDEST DUP3 MSTORE POP POP JUMP JUMPDEST PUSH1 0x0 PUSH1 0x20 DUP3 ADD SWAP1 POP PUSH2 0x438 PUSH1 0x0 DUP4 ADD DUP5 PUSH2 0x414 JUMP JUMPDEST SWAP3 SWAP2 POP POP JUMP JUMPDEST PUSH1 0x0 DUP1 REVERT JUMPDEST PUSH1 0x0 DUP1 REVERT JUMPDEST PUSH1 0x0 DUP1 REVERT JUMPDEST PUSH1 0x0 DUP1 DUP4 PUSH1 0x1F DUP5 ADD SLT PUSH2 0x463 JUMPI PUSH2 0x462 PUSH2 0x43E JUMP JUMPDEST JUMPDEST DUP3 CALLDATALOAD SWAP1 POP PUSH8 0xFFFFFFFFFFFFFFFF DUP2 GT ISZERO PUSH2 0x480 JUMPI PUSH2 0x47F PUSH2 0x443 JUMP JUMPDEST JUMPDEST PUSH1 0x20 DUP4 ADD SWAP2 POP DUP4 PUSH1 0x20 DUP3 MUL DUP4 ADD GT ISZERO PUSH2 0x49C JUMPI PUSH2 0x49B PUSH2 0x448 JUMP JUMPDEST JUMPDEST SWAP3 POP SWAP3 SWAP1 POP JUMP JUMPDEST PUSH1 0x0 DUP1 PUSH1 0x20 DUP4 DUP6 SUB SLT ISZERO PUSH2 0x4BA JUMPI PUSH2 0x4B9 PUSH2 0x39D JUMP JUMPDEST JUMPDEST PUSH1 0x0 DUP4 ADD CALLDATALOAD PUSH8 0xFFFFFFFFFFFFFFFF DUP2 GT ISZERO PUSH2 0x4D8 JUMPI PUSH2 0x4D7 PUSH2 0x3A2 JUMP JUMPDEST JUMPDEST PUSH2 0x4E4 DUP6 DUP3 DUP7 ADD PUSH2 0x44D JUMP JUMPDEST SWAP3 POP SWAP3 POP POP SWAP3 POP SWAP3 SWAP1 POP JUMP JUMPDEST PUSH1 0x0 DUP2 MLOAD SWAP1 POP SWAP2 SWAP1 POP JUMP JUMPDEST PUSH1 0x0 DUP3 DUP3 MSTORE PUSH1 0x20 DUP3 ADD SWAP1 POP SWAP3 SWAP2 POP POP JUMP JUMPDEST PUSH1 0x0 DUP2 SWAP1 POP PUSH1 0x20 DUP3 ADD SWAP1 POP SWAP2 SWAP1 POP JUMP JUMPDEST PUSH2 0x525 DUP2 PUSH2 0x40A JUMP JUMPDEST DUP3 MSTORE POP POP JUMP JUMPDEST PUSH1 0x0 PUSH2 0x537 DUP4 DUP4 PUSH2 0x51C JUMP JUMPDEST PUSH1 0x20 DUP4 ADD SWAP1 POP SWAP3 SWAP2 POP POP JUMP JUMPDEST PUSH1 0x0 PUSH1 0x20 DUP3 ADD SWAP1 POP SWAP2 SWAP1 POP JUMP JUMPDEST PUSH1 0x0 PUSH2 0x55B DUP3 PUSH2 0x4F0 JUMP JUMPDEST PUSH2 0x565 DUP2 DUP6 PUSH2 0x4FB JUMP JUMPDEST SWAP4 POP PUSH2 0x570 DUP4 PUSH2 0x50C JUMP JUMPDEST DUP1 PUSH1 0x0 JUMPDEST DUP4 DUP2 LT ISZERO PUSH2 0x5A1 JUMPI DUP2 MLOAD PUSH2 0x588 DUP9 DUP3 PUSH2 0x52B JUMP JUMPDEST SWAP8 POP PUSH2 0x593 DUP4 PUSH2 0x543 JUMP JUMPDEST SWAP3 POP POP PUSH1 0x1 DUP2 ADD SWAP1 POP PUSH2 0x574 JUMP JUMPDEST POP DUP6 SWAP4 POP POP POP POP SWAP3 SWAP2 POP POP JUMP JUMPDEST PUSH1 0x0 PUSH1 0x20 DUP3 ADD SWAP1 POP DUP2 DUP2 SUB PUSH1 0x0 DUP4 ADD MSTORE PUSH2 0x5C8 DUP2 DUP5 PUSH2 0x550 JUMP JUMPDEST SWAP1 POP SWAP3 SWAP2 POP POP JUMP JUMPDEST PUSH1 0x0 PUSH2 0xFFFF DUP3 AND SWAP1 POP SWAP2 SWAP1 POP JUMP JUMPDEST PUSH32 0x4E487B7100000000000000000000000000000000000000000000000000000000 PUSH1 0x0 MSTORE PUSH1 0x11 PUSH1 0x4 MSTORE PUSH1 0x24 PUSH1 0x0 REVERT JUMPDEST PUSH1 0x0 PUSH2 0x618 DUP3 PUSH2 0x5D0 JUMP JUMPDEST SWAP2 POP PUSH2 0x623 DUP4 PUSH2 0x5D0 JUMP JUMPDEST SWAP3 POP DUP3 PUSH2 0xFFFF SUB DUP3 GT ISZERO PUSH2 0x63A JUMPI PUSH2 0x639 PUSH2 0x5DE JUMP JUMPDEST JUMPDEST DUP3 DUP3 ADD SWAP1 POP SWAP3 SWAP2 POP POP JUMP JUMPDEST PUSH1 0x0 PUSH2 0x650 DUP3 PUSH2 0x40A JUMP JUMPDEST SWAP2 POP PUSH2 0x65B DUP4 PUSH2 0x40A JUMP JUMPDEST SWAP3 POP DUP2 PUSH32 0x7FFFFFFFFFFFFFFFFFFFFFFFFFFFFFFFFFFFFFFFFFFFFFFFFFFFFFFFFFFFFFFF SUB DUP4 SGT PUSH1 0x0 DUP4 SLT ISZERO AND ISZERO PUSH2 0x696 JUMPI PUSH2 0x695 PUSH2 0x5DE JUMP JUMPDEST JUMPDEST DUP2 PUSH32 0x8000000000000000000000000000000000000000000000000000000000000000 SUB DUP4 SLT PUSH1 0x0 DUP4 SLT AND ISZERO PUSH2 0x6CE JUMPI PUSH2 0x6CD PUSH2 0x5DE JUMP JUMPDEST JUMPDEST DUP3 DUP3 ADD SWAP1 POP SWAP3 SWAP2 POP POP JUMP JUMPDEST PUSH32 0x4E487B7100000000000000000000000000000000000000000000000000000000 PUSH1 0x0 MSTORE PUSH1 0x32 PUSH1 0x4 MSTORE PUSH1 0x24 PUSH1 0x0 REVERT JUMPDEST PUSH1 0x0 PUSH2 0x713 DUP3 PUSH2 0x40A JUMP JUMPDEST SWAP2 POP PUSH2 0x71E DUP4 PUSH2 0x40A JUMP JUMPDEST SWAP3 POP DUP3 PUSH32 0x7FFFFFFFFFFFFFFFFFFFFFFFFFFFFFFFFFFFFFFFFFFFFFFFFFFFFFFFFFFFFFFF DIV DUP3 GT PUSH1 0x0 DUP5 SGT PUSH1 0x0 DUP5 SGT AND AND ISZERO PUSH2 0x75D JUMPI PUSH2 0x75C PUSH2 0x5DE JUMP JUMPDEST JUMPDEST DUP2 PUSH32 0x8000000000000000000000000000000000000000000000000000000000000000 SDIV DUP4 SLT PUSH1 0x0 DUP5 SLT PUSH1 0x0 DUP5 SGT AND AND ISZERO PUSH2 0x79A JUMPI PUSH2 0x799 PUSH2 0x5DE JUMP JUMPDEST JUMPDEST DUP3 PUSH32 0x8000000000000000000000000000000000000000000000000000000000000000 SDIV DUP3 SLT PUSH1 0x0 DUP5 SGT PUSH1 0x0 DUP5 SLT AND AND ISZERO PUSH2 0x7D7 JUMPI PUSH2 0x7D6 PUSH2 0x5DE JUMP JUMPDEST JUMPDEST DUP3 PUSH32 0x7FFFFFFFFFFFFFFFFFFFFFFFFFFFFFFFFFFFFFFFFFFFFFFFFFFFFFFFFFFFFFFF SDIV DUP3 SLT PUSH1 0x0 DUP5 SLT PUSH1 0x0 DUP5 SLT AND AND ISZERO PUSH2 0x814 JUMPI PUSH2 0x813 PUSH2 0x5DE JUMP JUMPDEST JUMPDEST DUP3 DUP3 MUL SWAP1 POP SWAP3 SWAP2 POP POP JUMP JUMPDEST PUSH32 0x4E487B7100000000000000000000000000000000000000000000000000000000 PUSH1 0x0 MSTORE PUSH1 0x12 PUSH1 0x4 MSTORE PUSH1 0x24 PUSH1 0x0 REVERT JUMPDEST PUSH1 0x0 PUSH2 0x859 DUP3 PUSH2 0x40A JUMP JUMPDEST SWAP2 POP PUSH2 0x864 DUP4 PUSH2 0x40A JUMP JUMPDEST SWAP3 POP DUP3 PUSH2 0x874 JUMPI PUSH2 0x873 PUSH2 0x81F JUMP JUMPDEST JUMPDEST PUSH1 0x1 PUSH1 0x0 SUB DUP4 EQ PUSH32 0x8000000000000000000000000000000000000000000000000000000000000000 DUP4 EQ AND ISZERO PUSH2 0x8AD JUMPI PUSH2 0x8AC PUSH2 0x5DE JUMP JUMPDEST JUMPDEST DUP3 DUP3 SDIV SWAP1 POP SWAP3 SWAP2 POP POP JUMP JUMPDEST PUSH1 0x0 PUSH2 0x8C3 DUP3 PUSH2 0x3A7 JUMP JUMPDEST SWAP2 POP PUSH32 0xFFFFFFFFFFFFFFFFFFFFFFFFFFFFFFFFFFFFFFFFFFFFFFFFFFFFFFFFFFFFFFFF DUP3 SUB PUSH2 0x8F5 JUMPI PUSH2 0x8F4 PUSH2 0x5DE JUMP JUMPDEST JUMPDEST PUSH1 0x1 DUP3 ADD SWAP1 POP SWAP2 SWAP1 POP JUMP INVALID LOG2 PUSH5 0x6970667358 0x22 SLT KECCAK256 DUP8 PUSH5 0xADBE5359C6 0x29 PUSH2 0x5E77 0xE6 SWAP3 SDIV ADD 0x21 DUP7 0x4D 0xC3 PUSH28 0x2C2FB2D6755AC02D99A4F6EE64736F6C634300080D00330000000000 "
        },
        "methodIdentifiers": {
          "batch_size()": "3a52968e",
          "dimensions(uint256)": "24eb95fe",
          "get_weights()": "c957accb",
          "global_model_parameters(uint256)": "14a1ca87",
          "running_model_parameters(uint256)": "2ffa0a51",
          "update_model(int256[])": "8fff5fce"
        }
      }
    }
  }
}