{
  "contracts/Federator.sol": {
    "Federator": {
      "abi": [
        {
          "inputs": [
            {
              "internalType": "uint256[]",
              "name": "model_structure",
              "type": "uint256[]"
            },
            {
              "internalType": "int256[]",
              "name": "model_parameters",
              "type": "int256[]"
            },
            {
              "internalType": "int256",
              "name": "max_batch_size_",
              "type": "int256"
            }
          ],
          "stateMutability": "nonpayable",
          "type": "constructor"
        },
        {
          "inputs": [],
          "name": "batch_size",
          "outputs": [
            {
              "internalType": "int256",
              "name": "",
              "type": "int256"
            }
          ],
          "stateMutability": "view",
          "type": "function"
        },
        {
          "inputs": [
            {
              "internalType": "uint256",
              "name": "",
              "type": "uint256"
            }
          ],
          "name": "dimensions",
          "outputs": [
            {
              "internalType": "uint256",
              "name": "",
              "type": "uint256"
            }
          ],
          "stateMutability": "view",
          "type": "function"
        },
        {
          "inputs": [],
          "name": "get_weights",
          "outputs": [
            {
              "internalType": "int256[]",
              "name": "weights",
              "type": "int256[]"
            }
          ],
          "stateMutability": "view",
          "type": "function"
        },
        {
          "inputs": [
            {
              "internalType": "uint256",
              "name": "",
              "type": "uint256"
            }
          ],
          "name": "global_model_parameters",
          "outputs": [
            {
              "internalType": "int256",
              "name": "",
              "type": "int256"
            }
          ],
          "stateMutability": "view",
          "type": "function"
        },
        {
          "inputs": [],
          "name": "max_batch_size",
          "outputs": [
            {
              "internalType": "int256",
              "name": "",
              "type": "int256"
            }
          ],
          "stateMutability": "view",
          "type": "function"
        },
        {
          "inputs": [
            {
              "internalType": "int256[]",
              "name": "new_model_parameters",
              "type": "int256[]"
            }
          ],
          "name": "update",
          "outputs": [],
          "stateMutability": "nonpayable",
          "type": "function"
        }
      ],
      "evm": {
        "bytecode": {
          "linkReferences": {},
          "object": "60806040523480156200001157600080fd5b506040516200105338038062001053833981810160405281019062000037919062000570565b81600190805190602001906200004f929190620001b9565b50816002908051906020019062000068929190620001b9565b5080600081905550825167ffffffffffffffff8111156200008e576200008d620002c5565b5b604051908082528060200260200182016040528015620000bd5781602001602082028036833780820191505090505b5060039080519060200190620000d59291906200020b565b506000805b84518161ffff1610156200017a57848161ffff16815181106200010257620001016200060a565b5b602002602001015160038261ffff16815481106200012557620001246200060a565b5b9060005260206000200181905550848161ffff16815181106200014d576200014c6200060a565b5b60200260200101518262000162919062000668565b915080806200017190620006d3565b915050620000da565b50825181146200018957600080fd5b60006004819055506000600560006101000a81548161ffff021916908361ffff1602179055505050505062000702565b828054828255906000526020600020908101928215620001f8579160200282015b82811115620001f7578251825591602001919060010190620001da565b5b5090506200020791906200025d565b5090565b8280548282559060005260206000209081019282156200024a579160200282015b82811115620002495782518255916020019190600101906200022c565b5b5090506200025991906200027c565b5090565b5b80821115620002785760008160009055506001016200025e565b5090565b5b80821115620002975760008160009055506001016200027d565b5090565b6000604051905090565b600080fd5b600080fd5b600080fd5b6000601f19601f8301169050919050565b7f4e487b7100000000000000000000000000000000000000000000000000000000600052604160045260246000fd5b620002ff82620002b4565b810181811067ffffffffffffffff82111715620003215762000320620002c5565b5b80604052505050565b6000620003366200029b565b9050620003448282620002f4565b919050565b600067ffffffffffffffff821115620003675762000366620002c5565b5b602082029050602081019050919050565b600080fd5b6000819050919050565b62000392816200037d565b81146200039e57600080fd5b50565b600081519050620003b28162000387565b92915050565b6000620003cf620003c98462000349565b6200032a565b90508083825260208201905060208402830185811115620003f557620003f462000378565b5b835b818110156200042257806200040d8882620003a1565b845260208401935050602081019050620003f7565b5050509392505050565b600082601f830112620004445762000443620002af565b5b815162000456848260208601620003b8565b91505092915050565b600067ffffffffffffffff8211156200047d576200047c620002c5565b5b602082029050602081019050919050565b6000819050919050565b620004a3816200048e565b8114620004af57600080fd5b50565b600081519050620004c38162000498565b92915050565b6000620004e0620004da846200045f565b6200032a565b9050808382526020820190506020840283018581111562000506576200050562000378565b5b835b818110156200053357806200051e8882620004b2565b84526020840193505060208101905062000508565b5050509392505050565b600082601f830112620005555762000554620002af565b5b815162000567848260208601620004c9565b91505092915050565b6000806000606084860312156200058c576200058b620002a5565b5b600084015167ffffffffffffffff811115620005ad57620005ac620002aa565b5b620005bb868287016200042c565b935050602084015167ffffffffffffffff811115620005df57620005de620002aa565b5b620005ed868287016200053d565b92505060406200060086828701620004b2565b9150509250925092565b7f4e487b7100000000000000000000000000000000000000000000000000000000600052603260045260246000fd5b7f4e487b7100000000000000000000000000000000000000000000000000000000600052601160045260246000fd5b600062000675826200037d565b915062000682836200037d565b9250827fffffffffffffffffffffffffffffffffffffffffffffffffffffffffffffffff03821115620006ba57620006b962000639565b5b828201905092915050565b600061ffff82169050919050565b6000620006e082620006c5565b915061ffff8203620006f757620006f662000639565b5b600182019050919050565b61094180620007126000396000f3fe608060405234801561001057600080fd5b50600436106100625760003560e01c806314a1ca871461006757806324eb95fe1461009757806326fe8a46146100c75780633a52968e146100e5578063ba1a284b14610103578063c957accb1461011f575b600080fd5b610081600480360381019061007c91906103be565b61013d565b60405161008e9190610404565b60405180910390f35b6100b160048036038101906100ac91906103be565b610161565b6040516100be919061042e565b60405180910390f35b6100cf610185565b6040516100dc9190610404565b60405180910390f35b6100ed61018b565b6040516100fa9190610404565b60405180910390f35b61011d600480360381019061011891906104ae565b610191565b005b6101276102b7565b60405161013491906105b9565b60405180910390f35b6001818154811061014d57600080fd5b906000526020600020016000915090505481565b6003818154811061017157600080fd5b906000526020600020016000915090505481565b60005481565b60045481565b600054600454036101f157600260019080546101ae92919061030f565b5060016004819055506001600560009054906101000a900461ffff166101d49190610618565b600560006101000a81548161ffff021916908361ffff1602179055505b60005b8282905081101561029d57600160045461020e9190610650565b60045460028381548110610225576102246106e4565b5b906000526020600020015461023a9190610713565b84848481811061024d5761024c6106e4565b5b9050602002013561025e9190610650565b6102689190610859565b6002828154811061027c5761027b6106e4565b5b90600052602060002001819055508080610295906108c3565b9150506101f4565b5060016004546102ad9190610650565b6004819055505050565b6060600180548060200260200160405190810160405280929190818152602001828054801561030557602002820191906000526020600020905b8154815260200190600101908083116102f1575b5050505050905090565b8280548282559060005260206000209081019282156103505760005260206000209182015b8281111561034f578254825591600101919060010190610334565b5b50905061035d9190610361565b5090565b5b8082111561037a576000816000905550600101610362565b5090565b600080fd5b600080fd5b6000819050919050565b61039b81610388565b81146103a657600080fd5b50565b6000813590506103b881610392565b92915050565b6000602082840312156103d4576103d361037e565b5b60006103e2848285016103a9565b91505092915050565b6000819050919050565b6103fe816103eb565b82525050565b600060208201905061041960008301846103f5565b92915050565b61042881610388565b82525050565b6000602082019050610443600083018461041f565b92915050565b600080fd5b600080fd5b600080fd5b60008083601f84011261046e5761046d610449565b5b8235905067ffffffffffffffff81111561048b5761048a61044e565b5b6020830191508360208202830111156104a7576104a6610453565b5b9250929050565b600080602083850312156104c5576104c461037e565b5b600083013567ffffffffffffffff8111156104e3576104e2610383565b5b6104ef85828601610458565b92509250509250929050565b600081519050919050565b600082825260208201905092915050565b6000819050602082019050919050565b610530816103eb565b82525050565b60006105428383610527565b60208301905092915050565b6000602082019050919050565b6000610566826104fb565b6105708185610506565b935061057b83610517565b8060005b838110156105ac5781516105938882610536565b975061059e8361054e565b92505060018101905061057f565b5085935050505092915050565b600060208201905081810360008301526105d3818461055b565b905092915050565b600061ffff82169050919050565b7f4e487b7100000000000000000000000000000000000000000000000000000000600052601160045260246000fd5b6000610623826105db565b915061062e836105db565b92508261ffff03821115610645576106446105e9565b5b828201905092915050565b600061065b826103eb565b9150610666836103eb565b9250817f7fffffffffffffffffffffffffffffffffffffffffffffffffffffffffffffff038313600083121516156106a1576106a06105e9565b5b817f80000000000000000000000000000000000000000000000000000000000000000383126000831216156106d9576106d86105e9565b5b828201905092915050565b7f4e487b7100000000000000000000000000000000000000000000000000000000600052603260045260246000fd5b600061071e826103eb565b9150610729836103eb565b9250827f7fffffffffffffffffffffffffffffffffffffffffffffffffffffffffffffff0482116000841360008413161615610768576107676105e9565b5b817f800000000000000000000000000000000000000000000000000000000000000005831260008412600084131616156107a5576107a46105e9565b5b827f800000000000000000000000000000000000000000000000000000000000000005821260008413600084121616156107e2576107e16105e9565b5b827f7fffffffffffffffffffffffffffffffffffffffffffffffffffffffffffffff058212600084126000841216161561081f5761081e6105e9565b5b828202905092915050565b7f4e487b7100000000000000000000000000000000000000000000000000000000600052601260045260246000fd5b6000610864826103eb565b915061086f836103eb565b92508261087f5761087e61082a565b5b600160000383147f8000000000000000000000000000000000000000000000000000000000000000831416156108b8576108b76105e9565b5b828205905092915050565b60006108ce82610388565b91507fffffffffffffffffffffffffffffffffffffffffffffffffffffffffffffffff8203610900576108ff6105e9565b5b60018201905091905056fea264697066735822122026c5fd3ba8f0272a6fff26fc40261037595870b5aeb16690ee99195db5d7e11264736f6c634300080d0033",
          "opcodes": "PUSH1 0x80 PUSH1 0x40 MSTORE CALLVALUE DUP1 ISZERO PUSH3 0x11 JUMPI PUSH1 0x0 DUP1 REVERT JUMPDEST POP PUSH1 0x40 MLOAD PUSH3 0x1053 CODESIZE SUB DUP1 PUSH3 0x1053 DUP4 CODECOPY DUP2 DUP2 ADD PUSH1 0x40 MSTORE DUP2 ADD SWAP1 PUSH3 0x37 SWAP2 SWAP1 PUSH3 0x570 JUMP JUMPDEST DUP2 PUSH1 0x1 SWAP1 DUP1 MLOAD SWAP1 PUSH1 0x20 ADD SWAP1 PUSH3 0x4F SWAP3 SWAP2 SWAP1 PUSH3 0x1B9 JUMP JUMPDEST POP DUP2 PUSH1 0x2 SWAP1 DUP1 MLOAD SWAP1 PUSH1 0x20 ADD SWAP1 PUSH3 0x68 SWAP3 SWAP2 SWAP1 PUSH3 0x1B9 JUMP JUMPDEST POP DUP1 PUSH1 0x0 DUP2 SWAP1 SSTORE POP DUP3 MLOAD PUSH8 0xFFFFFFFFFFFFFFFF DUP2 GT ISZERO PUSH3 0x8E JUMPI PUSH3 0x8D PUSH3 0x2C5 JUMP JUMPDEST JUMPDEST PUSH1 0x40 MLOAD SWAP1 DUP1 DUP3 MSTORE DUP1 PUSH1 0x20 MUL PUSH1 0x20 ADD DUP3 ADD PUSH1 0x40 MSTORE DUP1 ISZERO PUSH3 0xBD JUMPI DUP2 PUSH1 0x20 ADD PUSH1 0x20 DUP3 MUL DUP1 CALLDATASIZE DUP4 CALLDATACOPY DUP1 DUP3 ADD SWAP2 POP POP SWAP1 POP JUMPDEST POP PUSH1 0x3 SWAP1 DUP1 MLOAD SWAP1 PUSH1 0x20 ADD SWAP1 PUSH3 0xD5 SWAP3 SWAP2 SWAP1 PUSH3 0x20B JUMP JUMPDEST POP PUSH1 0x0 DUP1 JUMPDEST DUP5 MLOAD DUP2 PUSH2 0xFFFF AND LT ISZERO PUSH3 0x17A JUMPI DUP5 DUP2 PUSH2 0xFFFF AND DUP2 MLOAD DUP2 LT PUSH3 0x102 JUMPI PUSH3 0x101 PUSH3 0x60A JUMP JUMPDEST JUMPDEST PUSH1 0x20 MUL PUSH1 0x20 ADD ADD MLOAD PUSH1 0x3 DUP3 PUSH2 0xFFFF AND DUP2 SLOAD DUP2 LT PUSH3 0x125 JUMPI PUSH3 0x124 PUSH3 0x60A JUMP JUMPDEST JUMPDEST SWAP1 PUSH1 0x0 MSTORE PUSH1 0x20 PUSH1 0x0 KECCAK256 ADD DUP2 SWAP1 SSTORE POP DUP5 DUP2 PUSH2 0xFFFF AND DUP2 MLOAD DUP2 LT PUSH3 0x14D JUMPI PUSH3 0x14C PUSH3 0x60A JUMP JUMPDEST JUMPDEST PUSH1 0x20 MUL PUSH1 0x20 ADD ADD MLOAD DUP3 PUSH3 0x162 SWAP2 SWAP1 PUSH3 0x668 JUMP JUMPDEST SWAP2 POP DUP1 DUP1 PUSH3 0x171 SWAP1 PUSH3 0x6D3 JUMP JUMPDEST SWAP2 POP POP PUSH3 0xDA JUMP JUMPDEST POP DUP3 MLOAD DUP2 EQ PUSH3 0x189 JUMPI PUSH1 0x0 DUP1 REVERT JUMPDEST PUSH1 0x0 PUSH1 0x4 DUP2 SWAP1 SSTORE POP PUSH1 0x0 PUSH1 0x5 PUSH1 0x0 PUSH2 0x100 EXP DUP2 SLOAD DUP2 PUSH2 0xFFFF MUL NOT AND SWAP1 DUP4 PUSH2 0xFFFF AND MUL OR SWAP1 SSTORE POP POP POP POP POP PUSH3 0x702 JUMP JUMPDEST DUP3 DUP1 SLOAD DUP3 DUP3 SSTORE SWAP1 PUSH1 0x0 MSTORE PUSH1 0x20 PUSH1 0x0 KECCAK256 SWAP1 DUP2 ADD SWAP3 DUP3 ISZERO PUSH3 0x1F8 JUMPI SWAP2 PUSH1 0x20 MUL DUP3 ADD JUMPDEST DUP3 DUP2 GT ISZERO PUSH3 0x1F7 JUMPI DUP3 MLOAD DUP3 SSTORE SWAP2 PUSH1 0x20 ADD SWAP2 SWAP1 PUSH1 0x1 ADD SWAP1 PUSH3 0x1DA JUMP JUMPDEST JUMPDEST POP SWAP1 POP PUSH3 0x207 SWAP2 SWAP1 PUSH3 0x25D JUMP JUMPDEST POP SWAP1 JUMP JUMPDEST DUP3 DUP1 SLOAD DUP3 DUP3 SSTORE SWAP1 PUSH1 0x0 MSTORE PUSH1 0x20 PUSH1 0x0 KECCAK256 SWAP1 DUP2 ADD SWAP3 DUP3 ISZERO PUSH3 0x24A JUMPI SWAP2 PUSH1 0x20 MUL DUP3 ADD JUMPDEST DUP3 DUP2 GT ISZERO PUSH3 0x249 JUMPI DUP3 MLOAD DUP3 SSTORE SWAP2 PUSH1 0x20 ADD SWAP2 SWAP1 PUSH1 0x1 ADD SWAP1 PUSH3 0x22C JUMP JUMPDEST JUMPDEST POP SWAP1 POP PUSH3 0x259 SWAP2 SWAP1 PUSH3 0x27C JUMP JUMPDEST POP SWAP1 JUMP JUMPDEST JUMPDEST DUP1 DUP3 GT ISZERO PUSH3 0x278 JUMPI PUSH1 0x0 DUP2 PUSH1 0x0 SWAP1 SSTORE POP PUSH1 0x1 ADD PUSH3 0x25E JUMP JUMPDEST POP SWAP1 JUMP JUMPDEST JUMPDEST DUP1 DUP3 GT ISZERO PUSH3 0x297 JUMPI PUSH1 0x0 DUP2 PUSH1 0x0 SWAP1 SSTORE POP PUSH1 0x1 ADD PUSH3 0x27D JUMP JUMPDEST POP SWAP1 JUMP JUMPDEST PUSH1 0x0 PUSH1 0x40 MLOAD SWAP1 POP SWAP1 JUMP JUMPDEST PUSH1 0x0 DUP1 REVERT JUMPDEST PUSH1 0x0 DUP1 REVERT JUMPDEST PUSH1 0x0 DUP1 REVERT JUMPDEST PUSH1 0x0 PUSH1 0x1F NOT PUSH1 0x1F DUP4 ADD AND SWAP1 POP SWAP2 SWAP1 POP JUMP JUMPDEST PUSH32 0x4E487B7100000000000000000000000000000000000000000000000000000000 PUSH1 0x0 MSTORE PUSH1 0x41 PUSH1 0x4 MSTORE PUSH1 0x24 PUSH1 0x0 REVERT JUMPDEST PUSH3 0x2FF DUP3 PUSH3 0x2B4 JUMP JUMPDEST DUP2 ADD DUP2 DUP2 LT PUSH8 0xFFFFFFFFFFFFFFFF DUP3 GT OR ISZERO PUSH3 0x321 JUMPI PUSH3 0x320 PUSH3 0x2C5 JUMP JUMPDEST JUMPDEST DUP1 PUSH1 0x40 MSTORE POP POP POP JUMP JUMPDEST PUSH1 0x0 PUSH3 0x336 PUSH3 0x29B JUMP JUMPDEST SWAP1 POP PUSH3 0x344 DUP3 DUP3 PUSH3 0x2F4 JUMP JUMPDEST SWAP2 SWAP1 POP JUMP JUMPDEST PUSH1 0x0 PUSH8 0xFFFFFFFFFFFFFFFF DUP3 GT ISZERO PUSH3 0x367 JUMPI PUSH3 0x366 PUSH3 0x2C5 JUMP JUMPDEST JUMPDEST PUSH1 0x20 DUP3 MUL SWAP1 POP PUSH1 0x20 DUP2 ADD SWAP1 POP SWAP2 SWAP1 POP JUMP JUMPDEST PUSH1 0x0 DUP1 REVERT JUMPDEST PUSH1 0x0 DUP2 SWAP1 POP SWAP2 SWAP1 POP JUMP JUMPDEST PUSH3 0x392 DUP2 PUSH3 0x37D JUMP JUMPDEST DUP2 EQ PUSH3 0x39E JUMPI PUSH1 0x0 DUP1 REVERT JUMPDEST POP JUMP JUMPDEST PUSH1 0x0 DUP2 MLOAD SWAP1 POP PUSH3 0x3B2 DUP2 PUSH3 0x387 JUMP JUMPDEST SWAP3 SWAP2 POP POP JUMP JUMPDEST PUSH1 0x0 PUSH3 0x3CF PUSH3 0x3C9 DUP5 PUSH3 0x349 JUMP JUMPDEST PUSH3 0x32A JUMP JUMPDEST SWAP1 POP DUP1 DUP4 DUP3 MSTORE PUSH1 0x20 DUP3 ADD SWAP1 POP PUSH1 0x20 DUP5 MUL DUP4 ADD DUP6 DUP2 GT ISZERO PUSH3 0x3F5 JUMPI PUSH3 0x3F4 PUSH3 0x378 JUMP JUMPDEST JUMPDEST DUP4 JUMPDEST DUP2 DUP2 LT ISZERO PUSH3 0x422 JUMPI DUP1 PUSH3 0x40D DUP9 DUP3 PUSH3 0x3A1 JUMP JUMPDEST DUP5 MSTORE PUSH1 0x20 DUP5 ADD SWAP4 POP POP PUSH1 0x20 DUP2 ADD SWAP1 POP PUSH3 0x3F7 JUMP JUMPDEST POP POP POP SWAP4 SWAP3 POP POP POP JUMP JUMPDEST PUSH1 0x0 DUP3 PUSH1 0x1F DUP4 ADD SLT PUSH3 0x444 JUMPI PUSH3 0x443 PUSH3 0x2AF JUMP JUMPDEST JUMPDEST DUP2 MLOAD PUSH3 0x456 DUP5 DUP3 PUSH1 0x20 DUP7 ADD PUSH3 0x3B8 JUMP JUMPDEST SWAP2 POP POP SWAP3 SWAP2 POP POP JUMP JUMPDEST PUSH1 0x0 PUSH8 0xFFFFFFFFFFFFFFFF DUP3 GT ISZERO PUSH3 0x47D JUMPI PUSH3 0x47C PUSH3 0x2C5 JUMP JUMPDEST JUMPDEST PUSH1 0x20 DUP3 MUL SWAP1 POP PUSH1 0x20 DUP2 ADD SWAP1 POP SWAP2 SWAP1 POP JUMP JUMPDEST PUSH1 0x0 DUP2 SWAP1 POP SWAP2 SWAP1 POP JUMP JUMPDEST PUSH3 0x4A3 DUP2 PUSH3 0x48E JUMP JUMPDEST DUP2 EQ PUSH3 0x4AF JUMPI PUSH1 0x0 DUP1 REVERT JUMPDEST POP JUMP JUMPDEST PUSH1 0x0 DUP2 MLOAD SWAP1 POP PUSH3 0x4C3 DUP2 PUSH3 0x498 JUMP JUMPDEST SWAP3 SWAP2 POP POP JUMP JUMPDEST PUSH1 0x0 PUSH3 0x4E0 PUSH3 0x4DA DUP5 PUSH3 0x45F JUMP JUMPDEST PUSH3 0x32A JUMP JUMPDEST SWAP1 POP DUP1 DUP4 DUP3 MSTORE PUSH1 0x20 DUP3 ADD SWAP1 POP PUSH1 0x20 DUP5 MUL DUP4 ADD DUP6 DUP2 GT ISZERO PUSH3 0x506 JUMPI PUSH3 0x505 PUSH3 0x378 JUMP JUMPDEST JUMPDEST DUP4 JUMPDEST DUP2 DUP2 LT ISZERO PUSH3 0x533 JUMPI DUP1 PUSH3 0x51E DUP9 DUP3 PUSH3 0x4B2 JUMP JUMPDEST DUP5 MSTORE PUSH1 0x20 DUP5 ADD SWAP4 POP POP PUSH1 0x20 DUP2 ADD SWAP1 POP PUSH3 0x508 JUMP JUMPDEST POP POP POP SWAP4 SWAP3 POP POP POP JUMP JUMPDEST PUSH1 0x0 DUP3 PUSH1 0x1F DUP4 ADD SLT PUSH3 0x555 JUMPI PUSH3 0x554 PUSH3 0x2AF JUMP JUMPDEST JUMPDEST DUP2 MLOAD PUSH3 0x567 DUP5 DUP3 PUSH1 0x20 DUP7 ADD PUSH3 0x4C9 JUMP JUMPDEST SWAP2 POP POP SWAP3 SWAP2 POP POP JUMP JUMPDEST PUSH1 0x0 DUP1 PUSH1 0x0 PUSH1 0x60 DUP5 DUP7 SUB SLT ISZERO PUSH3 0x58C JUMPI PUSH3 0x58B PUSH3 0x2A5 JUMP JUMPDEST JUMPDEST PUSH1 0x0 DUP5 ADD MLOAD PUSH8 0xFFFFFFFFFFFFFFFF DUP2 GT ISZERO PUSH3 0x5AD JUMPI PUSH3 0x5AC PUSH3 0x2AA JUMP JUMPDEST JUMPDEST PUSH3 0x5BB DUP7 DUP3 DUP8 ADD PUSH3 0x42C JUMP JUMPDEST SWAP4 POP POP PUSH1 0x20 DUP5 ADD MLOAD PUSH8 0xFFFFFFFFFFFFFFFF DUP2 GT ISZERO PUSH3 0x5DF JUMPI PUSH3 0x5DE PUSH3 0x2AA JUMP JUMPDEST JUMPDEST PUSH3 0x5ED DUP7 DUP3 DUP8 ADD PUSH3 0x53D JUMP JUMPDEST SWAP3 POP POP PUSH1 0x40 PUSH3 0x600 DUP7 DUP3 DUP8 ADD PUSH3 0x4B2 JUMP JUMPDEST SWAP2 POP POP SWAP3 POP SWAP3 POP SWAP3 JUMP JUMPDEST PUSH32 0x4E487B7100000000000000000000000000000000000000000000000000000000 PUSH1 0x0 MSTORE PUSH1 0x32 PUSH1 0x4 MSTORE PUSH1 0x24 PUSH1 0x0 REVERT JUMPDEST PUSH32 0x4E487B7100000000000000000000000000000000000000000000000000000000 PUSH1 0x0 MSTORE PUSH1 0x11 PUSH1 0x4 MSTORE PUSH1 0x24 PUSH1 0x0 REVERT JUMPDEST PUSH1 0x0 PUSH3 0x675 DUP3 PUSH3 0x37D JUMP JUMPDEST SWAP2 POP PUSH3 0x682 DUP4 PUSH3 0x37D JUMP JUMPDEST SWAP3 POP DUP3 PUSH32 0xFFFFFFFFFFFFFFFFFFFFFFFFFFFFFFFFFFFFFFFFFFFFFFFFFFFFFFFFFFFFFFFF SUB DUP3 GT ISZERO PUSH3 0x6BA JUMPI PUSH3 0x6B9 PUSH3 0x639 JUMP JUMPDEST JUMPDEST DUP3 DUP3 ADD SWAP1 POP SWAP3 SWAP2 POP POP JUMP JUMPDEST PUSH1 0x0 PUSH2 0xFFFF DUP3 AND SWAP1 POP SWAP2 SWAP1 POP JUMP JUMPDEST PUSH1 0x0 PUSH3 0x6E0 DUP3 PUSH3 0x6C5 JUMP JUMPDEST SWAP2 POP PUSH2 0xFFFF DUP3 SUB PUSH3 0x6F7 JUMPI PUSH3 0x6F6 PUSH3 0x639 JUMP JUMPDEST JUMPDEST PUSH1 0x1 DUP3 ADD SWAP1 POP SWAP2 SWAP1 POP JUMP JUMPDEST PUSH2 0x941 DUP1 PUSH3 0x712 PUSH1 0x0 CODECOPY PUSH1 0x0 RETURN INVALID PUSH1 0x80 PUSH1 0x40 MSTORE CALLVALUE DUP1 ISZERO PUSH2 0x10 JUMPI PUSH1 0x0 DUP1 REVERT JUMPDEST POP PUSH1 0x4 CALLDATASIZE LT PUSH2 0x62 JUMPI PUSH1 0x0 CALLDATALOAD PUSH1 0xE0 SHR DUP1 PUSH4 0x14A1CA87 EQ PUSH2 0x67 JUMPI DUP1 PUSH4 0x24EB95FE EQ PUSH2 0x97 JUMPI DUP1 PUSH4 0x26FE8A46 EQ PUSH2 0xC7 JUMPI DUP1 PUSH4 0x3A52968E EQ PUSH2 0xE5 JUMPI DUP1 PUSH4 0xBA1A284B EQ PUSH2 0x103 JUMPI DUP1 PUSH4 0xC957ACCB EQ PUSH2 0x11F JUMPI JUMPDEST PUSH1 0x0 DUP1 REVERT JUMPDEST PUSH2 0x81 PUSH1 0x4 DUP1 CALLDATASIZE SUB DUP2 ADD SWAP1 PUSH2 0x7C SWAP2 SWAP1 PUSH2 0x3BE JUMP JUMPDEST PUSH2 0x13D JUMP JUMPDEST PUSH1 0x40 MLOAD PUSH2 0x8E SWAP2 SWAP1 PUSH2 0x404 JUMP JUMPDEST PUSH1 0x40 MLOAD DUP1 SWAP2 SUB SWAP1 RETURN JUMPDEST PUSH2 0xB1 PUSH1 0x4 DUP1 CALLDATASIZE SUB DUP2 ADD SWAP1 PUSH2 0xAC SWAP2 SWAP1 PUSH2 0x3BE JUMP JUMPDEST PUSH2 0x161 JUMP JUMPDEST PUSH1 0x40 MLOAD PUSH2 0xBE SWAP2 SWAP1 PUSH2 0x42E JUMP JUMPDEST PUSH1 0x40 MLOAD DUP1 SWAP2 SUB SWAP1 RETURN JUMPDEST PUSH2 0xCF PUSH2 0x185 JUMP JUMPDEST PUSH1 0x40 MLOAD PUSH2 0xDC SWAP2 SWAP1 PUSH2 0x404 JUMP JUMPDEST PUSH1 0x40 MLOAD DUP1 SWAP2 SUB SWAP1 RETURN JUMPDEST PUSH2 0xED PUSH2 0x18B JUMP JUMPDEST PUSH1 0x40 MLOAD PUSH2 0xFA SWAP2 SWAP1 PUSH2 0x404 JUMP JUMPDEST PUSH1 0x40 MLOAD DUP1 SWAP2 SUB SWAP1 RETURN JUMPDEST PUSH2 0x11D PUSH1 0x4 DUP1 CALLDATASIZE SUB DUP2 ADD SWAP1 PUSH2 0x118 SWAP2 SWAP1 PUSH2 0x4AE JUMP JUMPDEST PUSH2 0x191 JUMP JUMPDEST STOP JUMPDEST PUSH2 0x127 PUSH2 0x2B7 JUMP JUMPDEST PUSH1 0x40 MLOAD PUSH2 0x134 SWAP2 SWAP1 PUSH2 0x5B9 JUMP JUMPDEST PUSH1 0x40 MLOAD DUP1 SWAP2 SUB SWAP1 RETURN JUMPDEST PUSH1 0x1 DUP2 DUP2 SLOAD DUP2 LT PUSH2 0x14D JUMPI PUSH1 0x0 DUP1 REVERT JUMPDEST SWAP1 PUSH1 0x0 MSTORE PUSH1 0x20 PUSH1 0x0 KECCAK256 ADD PUSH1 0x0 SWAP2 POP SWAP1 POP SLOAD DUP2 JUMP JUMPDEST PUSH1 0x3 DUP2 DUP2 SLOAD DUP2 LT PUSH2 0x171 JUMPI PUSH1 0x0 DUP1 REVERT JUMPDEST SWAP1 PUSH1 0x0 MSTORE PUSH1 0x20 PUSH1 0x0 KECCAK256 ADD PUSH1 0x0 SWAP2 POP SWAP1 POP SLOAD DUP2 JUMP JUMPDEST PUSH1 0x0 SLOAD DUP2 JUMP JUMPDEST PUSH1 0x4 SLOAD DUP2 JUMP JUMPDEST PUSH1 0x0 SLOAD PUSH1 0x4 SLOAD SUB PUSH2 0x1F1 JUMPI PUSH1 0x2 PUSH1 0x1 SWAP1 DUP1 SLOAD PUSH2 0x1AE SWAP3 SWAP2 SWAP1 PUSH2 0x30F JUMP JUMPDEST POP PUSH1 0x1 PUSH1 0x4 DUP2 SWAP1 SSTORE POP PUSH1 0x1 PUSH1 0x5 PUSH1 0x0 SWAP1 SLOAD SWAP1 PUSH2 0x100 EXP SWAP1 DIV PUSH2 0xFFFF AND PUSH2 0x1D4 SWAP2 SWAP1 PUSH2 0x618 JUMP JUMPDEST PUSH1 0x5 PUSH1 0x0 PUSH2 0x100 EXP DUP2 SLOAD DUP2 PUSH2 0xFFFF MUL NOT AND SWAP1 DUP4 PUSH2 0xFFFF AND MUL OR SWAP1 SSTORE POP JUMPDEST PUSH1 0x0 JUMPDEST DUP3 DUP3 SWAP1 POP DUP2 LT ISZERO PUSH2 0x29D JUMPI PUSH1 0x1 PUSH1 0x4 SLOAD PUSH2 0x20E SWAP2 SWAP1 PUSH2 0x650 JUMP JUMPDEST PUSH1 0x4 SLOAD PUSH1 0x2 DUP4 DUP2 SLOAD DUP2 LT PUSH2 0x225 JUMPI PUSH2 0x224 PUSH2 0x6E4 JUMP JUMPDEST JUMPDEST SWAP1 PUSH1 0x0 MSTORE PUSH1 0x20 PUSH1 0x0 KECCAK256 ADD SLOAD PUSH2 0x23A SWAP2 SWAP1 PUSH2 0x713 JUMP JUMPDEST DUP5 DUP5 DUP5 DUP2 DUP2 LT PUSH2 0x24D JUMPI PUSH2 0x24C PUSH2 0x6E4 JUMP JUMPDEST JUMPDEST SWAP1 POP PUSH1 0x20 MUL ADD CALLDATALOAD PUSH2 0x25E SWAP2 SWAP1 PUSH2 0x650 JUMP JUMPDEST PUSH2 0x268 SWAP2 SWAP1 PUSH2 0x859 JUMP JUMPDEST PUSH1 0x2 DUP3 DUP2 SLOAD DUP2 LT PUSH2 0x27C JUMPI PUSH2 0x27B PUSH2 0x6E4 JUMP JUMPDEST JUMPDEST SWAP1 PUSH1 0x0 MSTORE PUSH1 0x20 PUSH1 0x0 KECCAK256 ADD DUP2 SWAP1 SSTORE POP DUP1 DUP1 PUSH2 0x295 SWAP1 PUSH2 0x8C3 JUMP JUMPDEST SWAP2 POP POP PUSH2 0x1F4 JUMP JUMPDEST POP PUSH1 0x1 PUSH1 0x4 SLOAD PUSH2 0x2AD SWAP2 SWAP1 PUSH2 0x650 JUMP JUMPDEST PUSH1 0x4 DUP2 SWAP1 SSTORE POP POP POP JUMP JUMPDEST PUSH1 0x60 PUSH1 0x1 DUP1 SLOAD DUP1 PUSH1 0x20 MUL PUSH1 0x20 ADD PUSH1 0x40 MLOAD SWAP1 DUP2 ADD PUSH1 0x40 MSTORE DUP1 SWAP3 SWAP2 SWAP1 DUP2 DUP2 MSTORE PUSH1 0x20 ADD DUP3 DUP1 SLOAD DUP1 ISZERO PUSH2 0x305 JUMPI PUSH1 0x20 MUL DUP3 ADD SWAP2 SWAP1 PUSH1 0x0 MSTORE PUSH1 0x20 PUSH1 0x0 KECCAK256 SWAP1 JUMPDEST DUP2 SLOAD DUP2 MSTORE PUSH1 0x20 ADD SWAP1 PUSH1 0x1 ADD SWAP1 DUP1 DUP4 GT PUSH2 0x2F1 JUMPI JUMPDEST POP POP POP POP POP SWAP1 POP SWAP1 JUMP JUMPDEST DUP3 DUP1 SLOAD DUP3 DUP3 SSTORE SWAP1 PUSH1 0x0 MSTORE PUSH1 0x20 PUSH1 0x0 KECCAK256 SWAP1 DUP2 ADD SWAP3 DUP3 ISZERO PUSH2 0x350 JUMPI PUSH1 0x0 MSTORE PUSH1 0x20 PUSH1 0x0 KECCAK256 SWAP2 DUP3 ADD JUMPDEST DUP3 DUP2 GT ISZERO PUSH2 0x34F JUMPI DUP3 SLOAD DUP3 SSTORE SWAP2 PUSH1 0x1 ADD SWAP2 SWAP1 PUSH1 0x1 ADD SWAP1 PUSH2 0x334 JUMP JUMPDEST JUMPDEST POP SWAP1 POP PUSH2 0x35D SWAP2 SWAP1 PUSH2 0x361 JUMP JUMPDEST POP SWAP1 JUMP JUMPDEST JUMPDEST DUP1 DUP3 GT ISZERO PUSH2 0x37A JUMPI PUSH1 0x0 DUP2 PUSH1 0x0 SWAP1 SSTORE POP PUSH1 0x1 ADD PUSH2 0x362 JUMP JUMPDEST POP SWAP1 JUMP JUMPDEST PUSH1 0x0 DUP1 REVERT JUMPDEST PUSH1 0x0 DUP1 REVERT JUMPDEST PUSH1 0x0 DUP2 SWAP1 POP SWAP2 SWAP1 POP JUMP JUMPDEST PUSH2 0x39B DUP2 PUSH2 0x388 JUMP JUMPDEST DUP2 EQ PUSH2 0x3A6 JUMPI PUSH1 0x0 DUP1 REVERT JUMPDEST POP JUMP JUMPDEST PUSH1 0x0 DUP2 CALLDATALOAD SWAP1 POP PUSH2 0x3B8 DUP2 PUSH2 0x392 JUMP JUMPDEST SWAP3 SWAP2 POP POP JUMP JUMPDEST PUSH1 0x0 PUSH1 0x20 DUP3 DUP5 SUB SLT ISZERO PUSH2 0x3D4 JUMPI PUSH2 0x3D3 PUSH2 0x37E JUMP JUMPDEST JUMPDEST PUSH1 0x0 PUSH2 0x3E2 DUP5 DUP3 DUP6 ADD PUSH2 0x3A9 JUMP JUMPDEST SWAP2 POP POP SWAP3 SWAP2 POP POP JUMP JUMPDEST PUSH1 0x0 DUP2 SWAP1 POP SWAP2 SWAP1 POP JUMP JUMPDEST PUSH2 0x3FE DUP2 PUSH2 0x3EB JUMP JUMPDEST DUP3 MSTORE POP POP JUMP JUMPDEST PUSH1 0x0 PUSH1 0x20 DUP3 ADD SWAP1 POP PUSH2 0x419 PUSH1 0x0 DUP4 ADD DUP5 PUSH2 0x3F5 JUMP JUMPDEST SWAP3 SWAP2 POP POP JUMP JUMPDEST PUSH2 0x428 DUP2 PUSH2 0x388 JUMP JUMPDEST DUP3 MSTORE POP POP JUMP JUMPDEST PUSH1 0x0 PUSH1 0x20 DUP3 ADD SWAP1 POP PUSH2 0x443 PUSH1 0x0 DUP4 ADD DUP5 PUSH2 0x41F JUMP JUMPDEST SWAP3 SWAP2 POP POP JUMP JUMPDEST PUSH1 0x0 DUP1 REVERT JUMPDEST PUSH1 0x0 DUP1 REVERT JUMPDEST PUSH1 0x0 DUP1 REVERT JUMPDEST PUSH1 0x0 DUP1 DUP4 PUSH1 0x1F DUP5 ADD SLT PUSH2 0x46E JUMPI PUSH2 0x46D PUSH2 0x449 JUMP JUMPDEST JUMPDEST DUP3 CALLDATALOAD SWAP1 POP PUSH8 0xFFFFFFFFFFFFFFFF DUP2 GT ISZERO PUSH2 0x48B JUMPI PUSH2 0x48A PUSH2 0x44E JUMP JUMPDEST JUMPDEST PUSH1 0x20 DUP4 ADD SWAP2 POP DUP4 PUSH1 0x20 DUP3 MUL DUP4 ADD GT ISZERO PUSH2 0x4A7 JUMPI PUSH2 0x4A6 PUSH2 0x453 JUMP JUMPDEST JUMPDEST SWAP3 POP SWAP3 SWAP1 POP JUMP JUMPDEST PUSH1 0x0 DUP1 PUSH1 0x20 DUP4 DUP6 SUB SLT ISZERO PUSH2 0x4C5 JUMPI PUSH2 0x4C4 PUSH2 0x37E JUMP JUMPDEST JUMPDEST PUSH1 0x0 DUP4 ADD CALLDATALOAD PUSH8 0xFFFFFFFFFFFFFFFF DUP2 GT ISZERO PUSH2 0x4E3 JUMPI PUSH2 0x4E2 PUSH2 0x383 JUMP JUMPDEST JUMPDEST PUSH2 0x4EF DUP6 DUP3 DUP7 ADD PUSH2 0x458 JUMP JUMPDEST SWAP3 POP SWAP3 POP POP SWAP3 POP SWAP3 SWAP1 POP JUMP JUMPDEST PUSH1 0x0 DUP2 MLOAD SWAP1 POP SWAP2 SWAP1 POP JUMP JUMPDEST PUSH1 0x0 DUP3 DUP3 MSTORE PUSH1 0x20 DUP3 ADD SWAP1 POP SWAP3 SWAP2 POP POP JUMP JUMPDEST PUSH1 0x0 DUP2 SWAP1 POP PUSH1 0x20 DUP3 ADD SWAP1 POP SWAP2 SWAP1 POP JUMP JUMPDEST PUSH2 0x530 DUP2 PUSH2 0x3EB JUMP JUMPDEST DUP3 MSTORE POP POP JUMP JUMPDEST PUSH1 0x0 PUSH2 0x542 DUP4 DUP4 PUSH2 0x527 JUMP JUMPDEST PUSH1 0x20 DUP4 ADD SWAP1 POP SWAP3 SWAP2 POP POP JUMP JUMPDEST PUSH1 0x0 PUSH1 0x20 DUP3 ADD SWAP1 POP SWAP2 SWAP1 POP JUMP JUMPDEST PUSH1 0x0 PUSH2 0x566 DUP3 PUSH2 0x4FB JUMP JUMPDEST PUSH2 0x570 DUP2 DUP6 PUSH2 0x506 JUMP JUMPDEST SWAP4 POP PUSH2 0x57B DUP4 PUSH2 0x517 JUMP JUMPDEST DUP1 PUSH1 0x0 JUMPDEST DUP4 DUP2 LT ISZERO PUSH2 0x5AC JUMPI DUP2 MLOAD PUSH2 0x593 DUP9 DUP3 PUSH2 0x536 JUMP JUMPDEST SWAP8 POP PUSH2 0x59E DUP4 PUSH2 0x54E JUMP JUMPDEST SWAP3 POP POP PUSH1 0x1 DUP2 ADD SWAP1 POP PUSH2 0x57F JUMP JUMPDEST POP DUP6 SWAP4 POP POP POP POP SWAP3 SWAP2 POP POP JUMP JUMPDEST PUSH1 0x0 PUSH1 0x20 DUP3 ADD SWAP1 POP DUP2 DUP2 SUB PUSH1 0x0 DUP4 ADD MSTORE PUSH2 0x5D3 DUP2 DUP5 PUSH2 0x55B JUMP JUMPDEST SWAP1 POP SWAP3 SWAP2 POP POP JUMP JUMPDEST PUSH1 0x0 PUSH2 0xFFFF DUP3 AND SWAP1 POP SWAP2 SWAP1 POP JUMP JUMPDEST PUSH32 0x4E487B7100000000000000000000000000000000000000000000000000000000 PUSH1 0x0 MSTORE PUSH1 0x11 PUSH1 0x4 MSTORE PUSH1 0x24 PUSH1 0x0 REVERT JUMPDEST PUSH1 0x0 PUSH2 0x623 DUP3 PUSH2 0x5DB JUMP JUMPDEST SWAP2 POP PUSH2 0x62E DUP4 PUSH2 0x5DB JUMP JUMPDEST SWAP3 POP DUP3 PUSH2 0xFFFF SUB DUP3 GT ISZERO PUSH2 0x645 JUMPI PUSH2 0x644 PUSH2 0x5E9 JUMP JUMPDEST JUMPDEST DUP3 DUP3 ADD SWAP1 POP SWAP3 SWAP2 POP POP JUMP JUMPDEST PUSH1 0x0 PUSH2 0x65B DUP3 PUSH2 0x3EB JUMP JUMPDEST SWAP2 POP PUSH2 0x666 DUP4 PUSH2 0x3EB JUMP JUMPDEST SWAP3 POP DUP2 PUSH32 0x7FFFFFFFFFFFFFFFFFFFFFFFFFFFFFFFFFFFFFFFFFFFFFFFFFFFFFFFFFFFFFFF SUB DUP4 SGT PUSH1 0x0 DUP4 SLT ISZERO AND ISZERO PUSH2 0x6A1 JUMPI PUSH2 0x6A0 PUSH2 0x5E9 JUMP JUMPDEST JUMPDEST DUP2 PUSH32 0x8000000000000000000000000000000000000000000000000000000000000000 SUB DUP4 SLT PUSH1 0x0 DUP4 SLT AND ISZERO PUSH2 0x6D9 JUMPI PUSH2 0x6D8 PUSH2 0x5E9 JUMP JUMPDEST JUMPDEST DUP3 DUP3 ADD SWAP1 POP SWAP3 SWAP2 POP POP JUMP JUMPDEST PUSH32 0x4E487B7100000000000000000000000000000000000000000000000000000000 PUSH1 0x0 MSTORE PUSH1 0x32 PUSH1 0x4 MSTORE PUSH1 0x24 PUSH1 0x0 REVERT JUMPDEST PUSH1 0x0 PUSH2 0x71E DUP3 PUSH2 0x3EB JUMP JUMPDEST SWAP2 POP PUSH2 0x729 DUP4 PUSH2 0x3EB JUMP JUMPDEST SWAP3 POP DUP3 PUSH32 0x7FFFFFFFFFFFFFFFFFFFFFFFFFFFFFFFFFFFFFFFFFFFFFFFFFFFFFFFFFFFFFFF DIV DUP3 GT PUSH1 0x0 DUP5 SGT PUSH1 0x0 DUP5 SGT AND AND ISZERO PUSH2 0x768 JUMPI PUSH2 0x767 PUSH2 0x5E9 JUMP JUMPDEST JUMPDEST DUP2 PUSH32 0x8000000000000000000000000000000000000000000000000000000000000000 SDIV DUP4 SLT PUSH1 0x0 DUP5 SLT PUSH1 0x0 DUP5 SGT AND AND ISZERO PUSH2 0x7A5 JUMPI PUSH2 0x7A4 PUSH2 0x5E9 JUMP JUMPDEST JUMPDEST DUP3 PUSH32 0x8000000000000000000000000000000000000000000000000000000000000000 SDIV DUP3 SLT PUSH1 0x0 DUP5 SGT PUSH1 0x0 DUP5 SLT AND AND ISZERO PUSH2 0x7E2 JUMPI PUSH2 0x7E1 PUSH2 0x5E9 JUMP JUMPDEST JUMPDEST DUP3 PUSH32 0x7FFFFFFFFFFFFFFFFFFFFFFFFFFFFFFFFFFFFFFFFFFFFFFFFFFFFFFFFFFFFFFF SDIV DUP3 SLT PUSH1 0x0 DUP5 SLT PUSH1 0x0 DUP5 SLT AND AND ISZERO PUSH2 0x81F JUMPI PUSH2 0x81E PUSH2 0x5E9 JUMP JUMPDEST JUMPDEST DUP3 DUP3 MUL SWAP1 POP SWAP3 SWAP2 POP POP JUMP JUMPDEST PUSH32 0x4E487B7100000000000000000000000000000000000000000000000000000000 PUSH1 0x0 MSTORE PUSH1 0x12 PUSH1 0x4 MSTORE PUSH1 0x24 PUSH1 0x0 REVERT JUMPDEST PUSH1 0x0 PUSH2 0x864 DUP3 PUSH2 0x3EB JUMP JUMPDEST SWAP2 POP PUSH2 0x86F DUP4 PUSH2 0x3EB JUMP JUMPDEST SWAP3 POP DUP3 PUSH2 0x87F JUMPI PUSH2 0x87E PUSH2 0x82A JUMP JUMPDEST JUMPDEST PUSH1 0x1 PUSH1 0x0 SUB DUP4 EQ PUSH32 0x8000000000000000000000000000000000000000000000000000000000000000 DUP4 EQ AND ISZERO PUSH2 0x8B8 JUMPI PUSH2 0x8B7 PUSH2 0x5E9 JUMP JUMPDEST JUMPDEST DUP3 DUP3 SDIV SWAP1 POP SWAP3 SWAP2 POP POP JUMP JUMPDEST PUSH1 0x0 PUSH2 0x8CE DUP3 PUSH2 0x388 JUMP JUMPDEST SWAP2 POP PUSH32 0xFFFFFFFFFFFFFFFFFFFFFFFFFFFFFFFFFFFFFFFFFFFFFFFFFFFFFFFFFFFFFFFF DUP3 SUB PUSH2 0x900 JUMPI PUSH2 0x8FF PUSH2 0x5E9 JUMP JUMPDEST JUMPDEST PUSH1 0x1 DUP3 ADD SWAP1 POP SWAP2 SWAP1 POP JUMP INVALID LOG2 PUSH5 0x6970667358 0x22 SLT KECCAK256 0x26 0xC5 REVERT EXTCODESIZE 0xA8 CREATE 0x27 0x2A PUSH16 0xFF26FC40261037595870B5AEB16690EE SWAP10 NOT 0x5D 0xB5 0xD7 0xE1 SLT PUSH5 0x736F6C6343 STOP ADDMOD 0xD STOP CALLER "
        },
        "methodIdentifiers": {
          "batch_size()": "3a52968e",
          "dimensions(uint256)": "24eb95fe",
          "get_weights()": "c957accb",
          "global_model_parameters(uint256)": "14a1ca87",
          "max_batch_size()": "26fe8a46",
          "update(int256[])": "ba1a284b"
        }
      }
    }
  }
}