{
  "_format": "hh-sol-artifact-1",
  "contractName": "Federator",
  "sourceName": "contracts/Federator.sol",
  "abi": [
    {
      "inputs": [
        {
          "internalType": "uint128[]",
          "name": "model_structure",
          "type": "uint128[]"
        },
        {
          "internalType": "int128[]",
          "name": "model_parameters",
          "type": "int128[]"
        },
        {
          "internalType": "int128",
          "name": "max_batch_size_",
          "type": "int128"
        }
      ],
      "stateMutability": "nonpayable",
      "type": "constructor"
    },
    {
      "inputs": [],
      "name": "batch_size",
      "outputs": [
        {
          "internalType": "int128",
          "name": "",
          "type": "int128"
        }
      ],
      "stateMutability": "view",
      "type": "function"
    },
    {
      "inputs": [
        {
          "internalType": "uint256",
          "name": "",
          "type": "uint256"
        }
      ],
      "name": "dimensions",
      "outputs": [
        {
          "internalType": "uint128",
          "name": "",
          "type": "uint128"
        }
      ],
      "stateMutability": "view",
      "type": "function"
    },
    {
      "inputs": [],
      "name": "get_running_weights",
      "outputs": [
        {
          "internalType": "int128[]",
          "name": "weights",
          "type": "int128[]"
        }
      ],
      "stateMutability": "view",
      "type": "function"
    },
    {
      "inputs": [],
      "name": "get_weights",
      "outputs": [
        {
          "internalType": "int128[]",
          "name": "weights",
          "type": "int128[]"
        }
      ],
      "stateMutability": "view",
      "type": "function"
    },
    {
      "inputs": [],
      "name": "max_batch_size",
      "outputs": [
        {
          "internalType": "int128",
          "name": "",
          "type": "int128"
        }
      ],
      "stateMutability": "view",
      "type": "function"
    },
    {
      "inputs": [
        {
          "internalType": "int128[]",
          "name": "new_model_parameters",
          "type": "int128[]"
        }
      ],
      "name": "update",
      "outputs": [],
      "stateMutability": "nonpayable",
      "type": "function"
    }
  ],
  "bytecode": "0x60806040523480156200001157600080fd5b5060405162001c8638038062001c86833981810160405281019062000037919062000a2d565b806000806101000a8154816fffffffffffffffffffffffffffffffff0219169083600f0b6fffffffffffffffffffffffffffffffff160217905550825167ffffffffffffffff81111562000090576200008f6200076d565b5b604051908082528060200260200182016040528015620000bf5781602001602082028036833780820191505090505b5060039080519060200190620000d79291906200056b565b506000805b84518161ffff161015620001b957848161ffff168151811062000104576200010362000ac7565b5b602002602001015160038261ffff168154811062000127576200012662000ac7565b5b90600052602060002090600291828204019190066010026101000a8154816fffffffffffffffffffffffffffffffff02191690836fffffffffffffffffffffffffffffffff160217905550848161ffff16815181106200018c576200018b62000ac7565b5b602002602001015182620001a1919062000b25565b91508080620001b09062000b80565b915050620000dc565b508251816fffffffffffffffffffffffffffffffff1614620001da57600080fd5b825167ffffffffffffffff811115620001f857620001f76200076d565b5b604051908082528060200260200182016040528015620002275781602001602082028036833780820191505090505b50600190805190602001906200023f92919062000646565b50825167ffffffffffffffff8111156200025e576200025d6200076d565b5b6040519080825280602002602001820160405280156200028d5781602001602082028036833780820191505090505b5060029080519060200190620002a592919062000646565b5060005b83518161ffff161015620003e357838161ffff1681518110620002d157620002d062000ac7565b5b602002602001015160018261ffff1681548110620002f457620002f362000ac7565b5b90600052602060002090600291828204019190066010026101000a8154816fffffffffffffffffffffffffffffffff0219169083600f0b6fffffffffffffffffffffffffffffffff160217905550838161ffff16815181106200035c576200035b62000ac7565b5b602002602001015160028261ffff16815481106200037f576200037e62000ac7565b5b90600052602060002090600291828204019190066010026101000a8154816fffffffffffffffffffffffffffffffff0219169083600f0b6fffffffffffffffffffffffffffffffff1602179055508080620003da9062000b80565b915050620002a9565b506200043760016000815481106200040057620003ff62000ac7565b5b90600052602060002090600291828204019190066010029054906101000a9004600f0b600f0b6200049f60201b620005ce1760201c565b6000600460006101000a8154816fffffffffffffffffffffffffffffffff0219169083600f0b6fffffffffffffffffffffffffffffffff1602179055506000600460106101000a81548161ffff021916908360010b61ffff1602179055505050505062000be7565b6200053f81604051602401620004b6919062000bca565b6040516020818303038152906040527f4e0c1d1d000000000000000000000000000000000000000000000000000000007bffffffffffffffffffffffffffffffffffffffffffffffffffffffff19166020820180517bffffffffffffffffffffffffffffffffffffffffffffffffffffffff83818316178352505050506200054260201b60201c565b50565b60008151905060006a636f6e736f6c652e6c6f679050602083016000808483855afa5050505050565b82805482825590600052602060002090600101600290048101928215620006335791602002820160005b83821115620005f357835183826101000a8154816fffffffffffffffffffffffffffffffff02191690836fffffffffffffffffffffffffffffffff1602179055509260200192601001602081600f0104928301926001030262000595565b8015620006315782816101000a8154906fffffffffffffffffffffffffffffffff0219169055601001602081600f01049283019260010302620005f3565b505b50905062000642919062000724565b5090565b82805482825590600052602060002090600101600290048101928215620007115791602002820160005b83821115620006d157835183826101000a8154816fffffffffffffffffffffffffffffffff0219169083600f0b6fffffffffffffffffffffffffffffffff1602179055509260200192601001602081600f0104928301926001030262000670565b80156200070f5782816101000a8154906fffffffffffffffffffffffffffffffff0219169055601001602081600f01049283019260010302620006d1565b505b50905062000720919062000724565b5090565b5b808211156200073f57600081600090555060010162000725565b5090565b6000604051905090565b600080fd5b600080fd5b600080fd5b6000601f19601f8301169050919050565b7f4e487b7100000000000000000000000000000000000000000000000000000000600052604160045260246000fd5b620007a7826200075c565b810181811067ffffffffffffffff82111715620007c957620007c86200076d565b5b80604052505050565b6000620007de62000743565b9050620007ec82826200079c565b919050565b600067ffffffffffffffff8211156200080f576200080e6200076d565b5b602082029050602081019050919050565b600080fd5b60006fffffffffffffffffffffffffffffffff82169050919050565b6200084c8162000825565b81146200085857600080fd5b50565b6000815190506200086c8162000841565b92915050565b6000620008896200088384620007f1565b620007d2565b90508083825260208201905060208402830185811115620008af57620008ae62000820565b5b835b81811015620008dc5780620008c788826200085b565b845260208401935050602081019050620008b1565b5050509392505050565b600082601f830112620008fe57620008fd62000757565b5b81516200091084826020860162000872565b91505092915050565b600067ffffffffffffffff8211156200093757620009366200076d565b5b602082029050602081019050919050565b600081600f0b9050919050565b620009608162000948565b81146200096c57600080fd5b50565b600081519050620009808162000955565b92915050565b60006200099d620009978462000919565b620007d2565b90508083825260208201905060208402830185811115620009c357620009c262000820565b5b835b81811015620009f05780620009db88826200096f565b845260208401935050602081019050620009c5565b5050509392505050565b600082601f83011262000a125762000a1162000757565b5b815162000a2484826020860162000986565b91505092915050565b60008060006060848603121562000a495762000a486200074d565b5b600084015167ffffffffffffffff81111562000a6a5762000a6962000752565b5b62000a7886828701620008e6565b935050602084015167ffffffffffffffff81111562000a9c5762000a9b62000752565b5b62000aaa86828701620009fa565b925050604062000abd868287016200096f565b9150509250925092565b7f4e487b7100000000000000000000000000000000000000000000000000000000600052603260045260246000fd5b7f4e487b7100000000000000000000000000000000000000000000000000000000600052601160045260246000fd5b600062000b328262000825565b915062000b3f8362000825565b9250826fffffffffffffffffffffffffffffffff0382111562000b675762000b6662000af6565b5b828201905092915050565b600061ffff82169050919050565b600062000b8d8262000b72565b915061ffff820362000ba45762000ba362000af6565b5b600182019050919050565b6000819050919050565b62000bc48162000baf565b82525050565b600060208201905062000be1600083018462000bb9565b92915050565b61108f8062000bf76000396000f3fe608060405234801561001057600080fd5b50600436106100625760003560e01c806324eb95fe1461006757806326fe8a46146100975780633a52968e146100b557806342944957146100d3578063c957accb146100ef578063e83cc2221461010d575b600080fd5b610081600480360381019061007c91906109fc565b61012b565b60405161008e9190610a54565b60405180910390f35b61009f610171565b6040516100ac9190610a8b565b60405180910390f35b6100bd610182565b6040516100ca9190610a8b565b60405180910390f35b6100ed60048036038101906100e89190610b0b565b610195565b005b6100f76104d2565b6040516101049190610c16565b60405180910390f35b610115610550565b6040516101229190610c16565b60405180910390f35b6003818154811061013b57600080fd5b9060005260206000209060029182820401919006601002915054906101000a90046fffffffffffffffffffffffffffffffff1681565b60008054906101000a9004600f0b81565b600460009054906101000a9004600f0b81565b60008054906101000a9004600f0b600f0b600460009054906101000a9004600f0b600f0b0361028857600260019080546101d092919061093f565b506001600460006101000a8154816fffffffffffffffffffffffffffffffff0219169083600f0b6fffffffffffffffffffffffffffffffff1602179055506001600460109054906101000a900460010b61022a9190610c74565b600460106101000a81548161ffff021916908360010b61ffff1602179055506102876040518060400160405280600981526020017f4920616d20686572650000000000000000000000000000000000000000000000815250610667565b5b60005b82829050816fffffffffffffffffffffffffffffffff1610156104555761037a61034e8484846fffffffffffffffffffffffffffffffff168181106102d3576102d2610cea565b5b90506020020160208101906102e89190610d45565b6103496002856fffffffffffffffffffffffffffffffff168154811061031157610310610cea565b5b90600052602060002090600291828204019190066010029054906101000a9004600f0b600460009054906101000a9004600f0b610700565b61076b565b6103756001600460009054906101000a9004600f0b61036d9190610d72565b600f0b6107d2565b610821565b6002826fffffffffffffffffffffffffffffffff16815481106103a05761039f610cea565b5b90600052602060002090600291828204019190066010026101000a8154816fffffffffffffffffffffffffffffffff0219169083600f0b6fffffffffffffffffffffffffffffffff1602179055506104426002826fffffffffffffffffffffffffffffffff168154811061041757610416610cea565b5b90600052602060002090600291828204019190066010029054906101000a9004600f0b600f0b6105ce565b808061044d90610df6565b91505061028b565b5061047760405180606001604052806035815260200161102560359139610667565b6001600460009054906101000a9004600f0b6104939190610d72565b600460006101000a8154816fffffffffffffffffffffffffffffffff0219169083600f0b6fffffffffffffffffffffffffffffffff1602179055505050565b6060600180548060200260200160405190810160405280929190818152602001828054801561054657602002820191906000526020600020906000905b82829054906101000a9004600f0b600f0b81526020019060100190602082600f0104928301926001038202915080841161050f5790505b5050505050905090565b606060028054806020026020016040519081016040528092919081815260200182805480156105c457602002820191906000526020600020906000905b82829054906101000a9004600f0b600f0b81526020019060100190602082600f0104928301926001038202915080841161058d5790505b5050505050905090565b610664816040516024016105e29190610e47565b6040516020818303038152906040527f4e0c1d1d000000000000000000000000000000000000000000000000000000007bffffffffffffffffffffffffffffffffffffffffffffffffffffffff19166020820180517bffffffffffffffffffffffffffffffffffffffffffffffffffffffff8381831617835250505050610916565b50565b6106fd8160405160240161067b9190610efb565b6040516020818303038152906040527f41304fac000000000000000000000000000000000000000000000000000000007bffffffffffffffffffffffffffffffffffffffffffffffffffffffff19166020820180517bffffffffffffffffffffffffffffffffffffffffffffffffffffffff8381831617835250505050610916565b50565b600080604083600f0b85600f0b02901d90507fffffffffffffffffffffffffffffffff80000000000000000000000000000000600f0b811215801561075857506f7fffffffffffffffffffffffffffffff600f0b8113155b61076157600080fd5b8091505092915050565b60008082600f0b84600f0b0190507fffffffffffffffffffffffffffffffff80000000000000000000000000000000600f0b81121580156107bf57506f7fffffffffffffffffffffffffffffff600f0b8113155b6107c857600080fd5b8091505092915050565b60007fffffffffffffffffffffffffffffffffffffffffffffffff8000000000000000821215801561080c5750677fffffffffffffff8213155b61081557600080fd5b604082901b9050919050565b60008082600f0b03610868576040517f08c379a000000000000000000000000000000000000000000000000000000000815260040161085f90610f69565b60405180910390fd5b600082600f0b604085600f0b901b8161088457610883610f89565b5b0590507fffffffffffffffffffffffffffffffff80000000000000000000000000000000600f0b81121580156108cd57506f7fffffffffffffffffffffffffffffff600f0b8113155b61090c576040517f08c379a000000000000000000000000000000000000000000000000000000000815260040161090390611004565b60405180910390fd5b8091505092915050565b60008151905060006a636f6e736f6c652e6c6f679050602083016000808483855afa5050505050565b8280548282559060005260206000209060010160029004810192821561098e576000526020600020916001016002900482015b8281111561098d578254825591600101919060010190610972565b5b50905061099b919061099f565b5090565b5b808211156109b85760008160009055506001016109a0565b5090565b600080fd5b600080fd5b6000819050919050565b6109d9816109c6565b81146109e457600080fd5b50565b6000813590506109f6816109d0565b92915050565b600060208284031215610a1257610a116109bc565b5b6000610a20848285016109e7565b91505092915050565b60006fffffffffffffffffffffffffffffffff82169050919050565b610a4e81610a29565b82525050565b6000602082019050610a696000830184610a45565b92915050565b600081600f0b9050919050565b610a8581610a6f565b82525050565b6000602082019050610aa06000830184610a7c565b92915050565b600080fd5b600080fd5b600080fd5b60008083601f840112610acb57610aca610aa6565b5b8235905067ffffffffffffffff811115610ae857610ae7610aab565b5b602083019150836020820283011115610b0457610b03610ab0565b5b9250929050565b60008060208385031215610b2257610b216109bc565b5b600083013567ffffffffffffffff811115610b4057610b3f6109c1565b5b610b4c85828601610ab5565b92509250509250929050565b600081519050919050565b600082825260208201905092915050565b6000819050602082019050919050565b610b8d81610a6f565b82525050565b6000610b9f8383610b84565b60208301905092915050565b6000602082019050919050565b6000610bc382610b58565b610bcd8185610b63565b9350610bd883610b74565b8060005b83811015610c09578151610bf08882610b93565b9750610bfb83610bab565b925050600181019050610bdc565b5085935050505092915050565b60006020820190508181036000830152610c308184610bb8565b905092915050565b60008160010b9050919050565b7f4e487b7100000000000000000000000000000000000000000000000000000000600052601160045260246000fd5b6000610c7f82610c38565b9150610c8a83610c38565b925081617fff03831360008312151615610ca757610ca6610c45565b5b817fffffffffffffffffffffffffffffffffffffffffffffffffffffffffffff8000038312600083121615610cdf57610cde610c45565b5b828201905092915050565b7f4e487b7100000000000000000000000000000000000000000000000000000000600052603260045260246000fd5b610d2281610a6f565b8114610d2d57600080fd5b50565b600081359050610d3f81610d19565b92915050565b600060208284031215610d5b57610d5a6109bc565b5b6000610d6984828501610d30565b91505092915050565b6000610d7d82610a6f565b9150610d8883610a6f565b9250816f7fffffffffffffffffffffffffffffff03831360008312151615610db357610db2610c45565b5b817fffffffffffffffffffffffffffffffff80000000000000000000000000000000038312600083121615610deb57610dea610c45565b5b828201905092915050565b6000610e0182610a29565b91506fffffffffffffffffffffffffffffffff8203610e2357610e22610c45565b5b600182019050919050565b6000819050919050565b610e4181610e2e565b82525050565b6000602082019050610e5c6000830184610e38565b92915050565b600081519050919050565b600082825260208201905092915050565b60005b83811015610e9c578082015181840152602081019050610e81565b83811115610eab576000848401525b50505050565b6000601f19601f8301169050919050565b6000610ecd82610e62565b610ed78185610e6d565b9350610ee7818560208601610e7e565b610ef081610eb1565b840191505092915050565b60006020820190508181036000830152610f158184610ec2565b905092915050565b7f4469766973696f6e206279207a65726f00000000000000000000000000000000600082015250565b6000610f53601083610e6d565b9150610f5e82610f1d565b602082019050919050565b60006020820190508181036000830152610f8281610f46565b9050919050565b7f4e487b7100000000000000000000000000000000000000000000000000000000600052601260045260246000fd5b7f4469766973696f6e206f766572666c6f77000000000000000000000000000000600082015250565b6000610fee601183610e6d565b9150610ff982610fb8565b602082019050919050565b6000602082019050818103600083015261101d81610fe1565b905091905056fe2d2d2d2d2d2d2d2d2d2d2d2d2d2d2d2d2d2d2d2d2d2d2d2d2d2d2d2d2d2d2d2d2d2d2d2d2d2d2d2d2d2d2d2d2d2d2d2d2d2d2d2d2da2646970667358221220fe6bd8536a3ad0bbe5195011b3b2e1e0e8a1d4581c0308005d48d3ccf135357e64736f6c634300080d0033",
  "linkReferences": {},
  "deployedLinkReferences": {}
}