{
  "_format": "hh-sol-artifact-1",
  "contractName": "Federator",
  "sourceName": "contracts/Federator.sol",
  "abi": [
    {
      "inputs": [
        {
          "internalType": "uint256[]",
          "name": "model_structure",
          "type": "uint256[]"
        },
        {
          "internalType": "int256[]",
          "name": "model_parameters",
          "type": "int256[]"
        },
        {
          "internalType": "int256",
          "name": "max_batch_size_",
          "type": "int256"
        }
      ],
      "stateMutability": "nonpayable",
      "type": "constructor"
    },
    {
      "inputs": [],
      "name": "batch_size",
      "outputs": [
        {
          "internalType": "int256",
          "name": "",
          "type": "int256"
        }
      ],
      "stateMutability": "view",
      "type": "function"
    },
    {
      "inputs": [
        {
          "internalType": "uint256",
          "name": "",
          "type": "uint256"
        }
      ],
      "name": "dimensions",
      "outputs": [
        {
          "internalType": "uint256",
          "name": "",
          "type": "uint256"
        }
      ],
      "stateMutability": "view",
      "type": "function"
    },
    {
      "inputs": [],
      "name": "get_weights",
      "outputs": [
        {
          "internalType": "int256[]",
          "name": "weights",
          "type": "int256[]"
        }
      ],
      "stateMutability": "view",
      "type": "function"
    },
    {
      "inputs": [
        {
          "internalType": "uint256",
          "name": "",
          "type": "uint256"
        }
      ],
      "name": "global_model_parameters",
      "outputs": [
        {
          "internalType": "int256",
          "name": "",
          "type": "int256"
        }
      ],
      "stateMutability": "view",
      "type": "function"
    },
    {
      "inputs": [],
      "name": "max_batch_size",
      "outputs": [
        {
          "internalType": "int256",
          "name": "",
          "type": "int256"
        }
      ],
      "stateMutability": "view",
      "type": "function"
    },
    {
      "inputs": [
        {
          "internalType": "int256[]",
          "name": "new_model_parameters",
          "type": "int256[]"
        }
      ],
      "name": "update",
      "outputs": [],
      "stateMutability": "nonpayable",
      "type": "function"
    }
  ],
  "bytecode": "0x60806040523480156200001157600080fd5b506040516200105338038062001053833981810160405281019062000037919062000570565b81600190805190602001906200004f929190620001b9565b50816002908051906020019062000068929190620001b9565b5080600081905550825167ffffffffffffffff8111156200008e576200008d620002c5565b5b604051908082528060200260200182016040528015620000bd5781602001602082028036833780820191505090505b5060039080519060200190620000d59291906200020b565b506000805b84518161ffff1610156200017a57848161ffff16815181106200010257620001016200060a565b5b602002602001015160038261ffff16815481106200012557620001246200060a565b5b9060005260206000200181905550848161ffff16815181106200014d576200014c6200060a565b5b60200260200101518262000162919062000668565b915080806200017190620006d3565b915050620000da565b50825181146200018957600080fd5b60006004819055506000600560006101000a81548161ffff021916908361ffff1602179055505050505062000702565b828054828255906000526020600020908101928215620001f8579160200282015b82811115620001f7578251825591602001919060010190620001da565b5b5090506200020791906200025d565b5090565b8280548282559060005260206000209081019282156200024a579160200282015b82811115620002495782518255916020019190600101906200022c565b5b5090506200025991906200027c565b5090565b5b80821115620002785760008160009055506001016200025e565b5090565b5b80821115620002975760008160009055506001016200027d565b5090565b6000604051905090565b600080fd5b600080fd5b600080fd5b6000601f19601f8301169050919050565b7f4e487b7100000000000000000000000000000000000000000000000000000000600052604160045260246000fd5b620002ff82620002b4565b810181811067ffffffffffffffff82111715620003215762000320620002c5565b5b80604052505050565b6000620003366200029b565b9050620003448282620002f4565b919050565b600067ffffffffffffffff821115620003675762000366620002c5565b5b602082029050602081019050919050565b600080fd5b6000819050919050565b62000392816200037d565b81146200039e57600080fd5b50565b600081519050620003b28162000387565b92915050565b6000620003cf620003c98462000349565b6200032a565b90508083825260208201905060208402830185811115620003f557620003f462000378565b5b835b818110156200042257806200040d8882620003a1565b845260208401935050602081019050620003f7565b5050509392505050565b600082601f830112620004445762000443620002af565b5b815162000456848260208601620003b8565b91505092915050565b600067ffffffffffffffff8211156200047d576200047c620002c5565b5b602082029050602081019050919050565b6000819050919050565b620004a3816200048e565b8114620004af57600080fd5b50565b600081519050620004c38162000498565b92915050565b6000620004e0620004da846200045f565b6200032a565b9050808382526020820190506020840283018581111562000506576200050562000378565b5b835b818110156200053357806200051e8882620004b2565b84526020840193505060208101905062000508565b5050509392505050565b600082601f830112620005555762000554620002af565b5b815162000567848260208601620004c9565b91505092915050565b6000806000606084860312156200058c576200058b620002a5565b5b600084015167ffffffffffffffff811115620005ad57620005ac620002aa565b5b620005bb868287016200042c565b935050602084015167ffffffffffffffff811115620005df57620005de620002aa565b5b620005ed868287016200053d565b92505060406200060086828701620004b2565b9150509250925092565b7f4e487b7100000000000000000000000000000000000000000000000000000000600052603260045260246000fd5b7f4e487b7100000000000000000000000000000000000000000000000000000000600052601160045260246000fd5b600062000675826200037d565b915062000682836200037d565b9250827fffffffffffffffffffffffffffffffffffffffffffffffffffffffffffffffff03821115620006ba57620006b962000639565b5b828201905092915050565b600061ffff82169050919050565b6000620006e082620006c5565b915061ffff8203620006f757620006f662000639565b5b600182019050919050565b61094180620007126000396000f3fe608060405234801561001057600080fd5b50600436106100625760003560e01c806314a1ca871461006757806324eb95fe1461009757806326fe8a46146100c75780633a52968e146100e5578063ba1a284b14610103578063c957accb1461011f575b600080fd5b610081600480360381019061007c91906103be565b61013d565b60405161008e9190610404565b60405180910390f35b6100b160048036038101906100ac91906103be565b610161565b6040516100be919061042e565b60405180910390f35b6100cf610185565b6040516100dc9190610404565b60405180910390f35b6100ed61018b565b6040516100fa9190610404565b60405180910390f35b61011d600480360381019061011891906104ae565b610191565b005b6101276102b7565b60405161013491906105b9565b60405180910390f35b6001818154811061014d57600080fd5b906000526020600020016000915090505481565b6003818154811061017157600080fd5b906000526020600020016000915090505481565b60005481565b60045481565b600054600454036101f157600260019080546101ae92919061030f565b5060016004819055506001600560009054906101000a900461ffff166101d49190610618565b600560006101000a81548161ffff021916908361ffff1602179055505b60005b8282905081101561029d57600160045461020e9190610650565b60045460028381548110610225576102246106e4565b5b906000526020600020015461023a9190610713565b84848481811061024d5761024c6106e4565b5b9050602002013561025e9190610650565b6102689190610859565b6002828154811061027c5761027b6106e4565b5b90600052602060002001819055508080610295906108c3565b9150506101f4565b5060016004546102ad9190610650565b6004819055505050565b6060600180548060200260200160405190810160405280929190818152602001828054801561030557602002820191906000526020600020905b8154815260200190600101908083116102f1575b5050505050905090565b8280548282559060005260206000209081019282156103505760005260206000209182015b8281111561034f578254825591600101919060010190610334565b5b50905061035d9190610361565b5090565b5b8082111561037a576000816000905550600101610362565b5090565b600080fd5b600080fd5b6000819050919050565b61039b81610388565b81146103a657600080fd5b50565b6000813590506103b881610392565b92915050565b6000602082840312156103d4576103d361037e565b5b60006103e2848285016103a9565b91505092915050565b6000819050919050565b6103fe816103eb565b82525050565b600060208201905061041960008301846103f5565b92915050565b61042881610388565b82525050565b6000602082019050610443600083018461041f565b92915050565b600080fd5b600080fd5b600080fd5b60008083601f84011261046e5761046d610449565b5b8235905067ffffffffffffffff81111561048b5761048a61044e565b5b6020830191508360208202830111156104a7576104a6610453565b5b9250929050565b600080602083850312156104c5576104c461037e565b5b600083013567ffffffffffffffff8111156104e3576104e2610383565b5b6104ef85828601610458565b92509250509250929050565b600081519050919050565b600082825260208201905092915050565b6000819050602082019050919050565b610530816103eb565b82525050565b60006105428383610527565b60208301905092915050565b6000602082019050919050565b6000610566826104fb565b6105708185610506565b935061057b83610517565b8060005b838110156105ac5781516105938882610536565b975061059e8361054e565b92505060018101905061057f565b5085935050505092915050565b600060208201905081810360008301526105d3818461055b565b905092915050565b600061ffff82169050919050565b7f4e487b7100000000000000000000000000000000000000000000000000000000600052601160045260246000fd5b6000610623826105db565b915061062e836105db565b92508261ffff03821115610645576106446105e9565b5b828201905092915050565b600061065b826103eb565b9150610666836103eb565b9250817f7fffffffffffffffffffffffffffffffffffffffffffffffffffffffffffffff038313600083121516156106a1576106a06105e9565b5b817f80000000000000000000000000000000000000000000000000000000000000000383126000831216156106d9576106d86105e9565b5b828201905092915050565b7f4e487b7100000000000000000000000000000000000000000000000000000000600052603260045260246000fd5b600061071e826103eb565b9150610729836103eb565b9250827f7fffffffffffffffffffffffffffffffffffffffffffffffffffffffffffffff0482116000841360008413161615610768576107676105e9565b5b817f800000000000000000000000000000000000000000000000000000000000000005831260008412600084131616156107a5576107a46105e9565b5b827f800000000000000000000000000000000000000000000000000000000000000005821260008413600084121616156107e2576107e16105e9565b5b827f7fffffffffffffffffffffffffffffffffffffffffffffffffffffffffffffff058212600084126000841216161561081f5761081e6105e9565b5b828202905092915050565b7f4e487b7100000000000000000000000000000000000000000000000000000000600052601260045260246000fd5b6000610864826103eb565b915061086f836103eb565b92508261087f5761087e61082a565b5b600160000383147f8000000000000000000000000000000000000000000000000000000000000000831416156108b8576108b76105e9565b5b828205905092915050565b60006108ce82610388565b91507fffffffffffffffffffffffffffffffffffffffffffffffffffffffffffffffff8203610900576108ff6105e9565b5b60018201905091905056fea264697066735822122026c5fd3ba8f0272a6fff26fc40261037595870b5aeb16690ee99195db5d7e11264736f6c634300080d0033",
  "linkReferences": {},
  "deployedLinkReferences": {}
}