{
  "_format": "hh-sol-artifact-1",
  "contractName": "Federator",
  "sourceName": "contracts/Federator.sol",
  "abi": [
    {
      "inputs": [
        {
          "internalType": "uint256[]",
          "name": "model_structure",
          "type": "uint256[]"
        },
        {
          "internalType": "int256[]",
          "name": "model_parameters",
          "type": "int256[]"
        }
      ],
      "stateMutability": "nonpayable",
      "type": "constructor"
    },
    {
      "inputs": [],
      "name": "batch_size",
      "outputs": [
        {
          "internalType": "int256",
          "name": "",
          "type": "int256"
        }
      ],
      "stateMutability": "view",
      "type": "function"
    },
    {
      "inputs": [
        {
          "internalType": "uint256",
          "name": "",
          "type": "uint256"
        }
      ],
      "name": "dimensions",
      "outputs": [
        {
          "internalType": "uint256",
          "name": "",
          "type": "uint256"
        }
      ],
      "stateMutability": "view",
      "type": "function"
    },
    {
      "inputs": [],
      "name": "get_weights",
      "outputs": [
        {
          "internalType": "int256[]",
          "name": "weights",
          "type": "int256[]"
        }
      ],
      "stateMutability": "view",
      "type": "function"
    },
    {
      "inputs": [
        {
          "internalType": "uint256",
          "name": "",
          "type": "uint256"
        }
      ],
      "name": "global_model_parameters",
      "outputs": [
        {
          "internalType": "int256",
          "name": "",
          "type": "int256"
        }
      ],
      "stateMutability": "view",
      "type": "function"
    },
    {
      "inputs": [
        {
          "internalType": "uint256",
          "name": "",
          "type": "uint256"
        }
      ],
      "name": "running_model_parameters",
      "outputs": [
        {
          "internalType": "int256",
          "name": "",
          "type": "int256"
        }
      ],
      "stateMutability": "view",
      "type": "function"
    },
    {
      "inputs": [
        {
          "internalType": "int256[]",
          "name": "new_model_parameters",
          "type": "int256[]"
        }
      ],
      "name": "update_model",
      "outputs": [],
      "stateMutability": "nonpayable",
      "type": "function"
    }
  ],
  "bytecode": "0x60806040523480156200001157600080fd5b506040516200105538038062001055833981810160405281019062000037919062000568565b80600090805190602001906200004f929190620001b1565b50806001908051906020019062000068929190620001b1565b50815167ffffffffffffffff811115620000875762000086620002bd565b5b604051908082528060200260200182016040528015620000b65781602001602082028036833780820191505090505b5060029080519060200190620000ce92919062000203565b506000805b83518161ffff1610156200017357838161ffff1681518110620000fb57620000fa620005ed565b5b602002602001015160028261ffff16815481106200011e576200011d620005ed565b5b9060005260206000200181905550838161ffff1681518110620001465762000145620005ed565b5b6020026020010151826200015b91906200064b565b915080806200016a90620006b6565b915050620000d3565b50815181146200018257600080fd5b60006003819055506000600460006101000a81548161ffff021916908361ffff160217905550505050620006e5565b828054828255906000526020600020908101928215620001f0579160200282015b82811115620001ef578251825591602001919060010190620001d2565b5b509050620001ff919062000255565b5090565b82805482825590600052602060002090810192821562000242579160200282015b828111156200024157825182559160200191906001019062000224565b5b50905062000251919062000274565b5090565b5b808211156200027057600081600090555060010162000256565b5090565b5b808211156200028f57600081600090555060010162000275565b5090565b6000604051905090565b600080fd5b600080fd5b600080fd5b6000601f19601f8301169050919050565b7f4e487b7100000000000000000000000000000000000000000000000000000000600052604160045260246000fd5b620002f782620002ac565b810181811067ffffffffffffffff82111715620003195762000318620002bd565b5b80604052505050565b60006200032e62000293565b90506200033c8282620002ec565b919050565b600067ffffffffffffffff8211156200035f576200035e620002bd565b5b602082029050602081019050919050565b600080fd5b6000819050919050565b6200038a8162000375565b81146200039657600080fd5b50565b600081519050620003aa816200037f565b92915050565b6000620003c7620003c18462000341565b62000322565b90508083825260208201905060208402830185811115620003ed57620003ec62000370565b5b835b818110156200041a578062000405888262000399565b845260208401935050602081019050620003ef565b5050509392505050565b600082601f8301126200043c576200043b620002a7565b5b81516200044e848260208601620003b0565b91505092915050565b600067ffffffffffffffff821115620004755762000474620002bd565b5b602082029050602081019050919050565b6000819050919050565b6200049b8162000486565b8114620004a757600080fd5b50565b600081519050620004bb8162000490565b92915050565b6000620004d8620004d28462000457565b62000322565b90508083825260208201905060208402830185811115620004fe57620004fd62000370565b5b835b818110156200052b5780620005168882620004aa565b84526020840193505060208101905062000500565b5050509392505050565b600082601f8301126200054d576200054c620002a7565b5b81516200055f848260208601620004c1565b91505092915050565b600080604083850312156200058257620005816200029d565b5b600083015167ffffffffffffffff811115620005a357620005a2620002a2565b5b620005b18582860162000424565b925050602083015167ffffffffffffffff811115620005d557620005d4620002a2565b5b620005e38582860162000535565b9150509250929050565b7f4e487b7100000000000000000000000000000000000000000000000000000000600052603260045260246000fd5b7f4e487b7100000000000000000000000000000000000000000000000000000000600052601160045260246000fd5b6000620006588262000375565b9150620006658362000375565b9250827fffffffffffffffffffffffffffffffffffffffffffffffffffffffffffffffff038211156200069d576200069c6200061c565b5b828201905092915050565b600061ffff82169050919050565b6000620006c382620006a8565b915061ffff8203620006da57620006d96200061c565b5b600182019050919050565b61096080620006f56000396000f3fe608060405234801561001057600080fd5b50600436106100625760003560e01c806314a1ca871461006757806324eb95fe146100975780632ffa0a51146100c75780633a52968e146100f75780638fff5fce14610115578063c957accb14610131575b600080fd5b610081600480360381019061007c91906103dd565b61014f565b60405161008e9190610423565b60405180910390f35b6100b160048036038101906100ac91906103dd565b610173565b6040516100be919061044d565b60405180910390f35b6100e160048036038101906100dc91906103dd565b610197565b6040516100ee9190610423565b60405180910390f35b6100ff6101bb565b60405161010c9190610423565b60405180910390f35b61012f600480360381019061012a91906104cd565b6101c1565b005b6101396102d6565b60405161014691906105d8565b60405180910390f35b6000818154811061015f57600080fd5b906000526020600020016000915090505481565b6002818154811061018357600080fd5b906000526020600020016000915090505481565b600181815481106101a757600080fd5b906000526020600020016000915090505481565b60035481565b600a6003540361022457600160009080546101dd92919061032e565b5060006003819055506001600460009054906101000a900461ffff166102039190610637565b600460006101000a81548161ffff021916908361ffff1602179055506102d2565b60005b828290508110156102d0576001600354610241919061066f565b6003546001838154811061025857610257610703565b5b906000526020600020015461026d9190610732565b8484848181106102805761027f610703565b5b90506020020135610291919061066f565b61029b9190610878565b600182815481106102af576102ae610703565b5b906000526020600020018190555080806102c8906108e2565b915050610227565b505b5050565b6060600080548060200260200160405190810160405280929190818152602001828054801561032457602002820191906000526020600020905b815481526020019060010190808311610310575b5050505050905090565b82805482825590600052602060002090810192821561036f5760005260206000209182015b8281111561036e578254825591600101919060010190610353565b5b50905061037c9190610380565b5090565b5b80821115610399576000816000905550600101610381565b5090565b600080fd5b600080fd5b6000819050919050565b6103ba816103a7565b81146103c557600080fd5b50565b6000813590506103d7816103b1565b92915050565b6000602082840312156103f3576103f261039d565b5b6000610401848285016103c8565b91505092915050565b6000819050919050565b61041d8161040a565b82525050565b60006020820190506104386000830184610414565b92915050565b610447816103a7565b82525050565b6000602082019050610462600083018461043e565b92915050565b600080fd5b600080fd5b600080fd5b60008083601f84011261048d5761048c610468565b5b8235905067ffffffffffffffff8111156104aa576104a961046d565b5b6020830191508360208202830111156104c6576104c5610472565b5b9250929050565b600080602083850312156104e4576104e361039d565b5b600083013567ffffffffffffffff811115610502576105016103a2565b5b61050e85828601610477565b92509250509250929050565b600081519050919050565b600082825260208201905092915050565b6000819050602082019050919050565b61054f8161040a565b82525050565b60006105618383610546565b60208301905092915050565b6000602082019050919050565b60006105858261051a565b61058f8185610525565b935061059a83610536565b8060005b838110156105cb5781516105b28882610555565b97506105bd8361056d565b92505060018101905061059e565b5085935050505092915050565b600060208201905081810360008301526105f2818461057a565b905092915050565b600061ffff82169050919050565b7f4e487b7100000000000000000000000000000000000000000000000000000000600052601160045260246000fd5b6000610642826105fa565b915061064d836105fa565b92508261ffff0382111561066457610663610608565b5b828201905092915050565b600061067a8261040a565b91506106858361040a565b9250817f7fffffffffffffffffffffffffffffffffffffffffffffffffffffffffffffff038313600083121516156106c0576106bf610608565b5b817f80000000000000000000000000000000000000000000000000000000000000000383126000831216156106f8576106f7610608565b5b828201905092915050565b7f4e487b7100000000000000000000000000000000000000000000000000000000600052603260045260246000fd5b600061073d8261040a565b91506107488361040a565b9250827f7fffffffffffffffffffffffffffffffffffffffffffffffffffffffffffffff048211600084136000841316161561078757610786610608565b5b817f800000000000000000000000000000000000000000000000000000000000000005831260008412600084131616156107c4576107c3610608565b5b827f8000000000000000000000000000000000000000000000000000000000000000058212600084136000841216161561080157610800610608565b5b827f7fffffffffffffffffffffffffffffffffffffffffffffffffffffffffffffff058212600084126000841216161561083e5761083d610608565b5b828202905092915050565b7f4e487b7100000000000000000000000000000000000000000000000000000000600052601260045260246000fd5b60006108838261040a565b915061088e8361040a565b92508261089e5761089d610849565b5b600160000383147f8000000000000000000000000000000000000000000000000000000000000000831416156108d7576108d6610608565b5b828205905092915050565b60006108ed826103a7565b91507fffffffffffffffffffffffffffffffffffffffffffffffffffffffffffffffff820361091f5761091e610608565b5b60018201905091905056fea2646970667358221220fced0f9139bd48837d49b532a696eecc7efdda2f507ca99ca98aaa5f11faac7564736f6c634300080d0033",
  "linkReferences": {},
  "deployedLinkReferences": {}
}