{
  "_format": "hh-sol-artifact-1",
  "contractName": "Federator",
  "sourceName": "contracts/Federator.sol",
  "abi": [
    {
      "inputs": [
        {
          "internalType": "uint256[]",
          "name": "model_structure",
          "type": "uint256[]"
        },
        {
          "internalType": "int256[]",
          "name": "model_parameters",
          "type": "int256[]"
        },
        {
          "internalType": "int256",
          "name": "max_batch_size_",
          "type": "int256"
        }
      ],
      "stateMutability": "nonpayable",
      "type": "constructor"
    },
    {
      "inputs": [],
      "name": "batch_size",
      "outputs": [
        {
          "internalType": "int256",
          "name": "",
          "type": "int256"
        }
      ],
      "stateMutability": "view",
      "type": "function"
    },
    {
      "inputs": [
        {
          "internalType": "uint256",
          "name": "",
          "type": "uint256"
        }
      ],
      "name": "dimensions",
      "outputs": [
        {
          "internalType": "uint256",
          "name": "",
          "type": "uint256"
        }
      ],
      "stateMutability": "view",
      "type": "function"
    },
    {
      "inputs": [],
      "name": "get_running_weights",
      "outputs": [
        {
          "internalType": "int256[]",
          "name": "weights",
          "type": "int256[]"
        }
      ],
      "stateMutability": "view",
      "type": "function"
    },
    {
      "inputs": [],
      "name": "get_weights",
      "outputs": [
        {
          "internalType": "int256[]",
          "name": "weights",
          "type": "int256[]"
        }
      ],
      "stateMutability": "view",
      "type": "function"
    },
    {
      "inputs": [],
      "name": "max_batch_size",
      "outputs": [
        {
          "internalType": "int256",
          "name": "",
          "type": "int256"
        }
      ],
      "stateMutability": "view",
      "type": "function"
    },
    {
      "inputs": [
        {
          "internalType": "int256[]",
          "name": "new_model_parameters",
          "type": "int256[]"
        }
      ],
      "name": "update",
      "outputs": [],
      "stateMutability": "nonpayable",
      "type": "function"
    }
  ],
  "bytecode": "0x60806040523480156200001157600080fd5b506040516200135138038062001351833981810160405281019062000037919062000570565b81600190805190602001906200004f929190620001b9565b50816002908051906020019062000068929190620001b9565b5080600081905550825167ffffffffffffffff8111156200008e576200008d620002c5565b5b604051908082528060200260200182016040528015620000bd5781602001602082028036833780820191505090505b5060039080519060200190620000d59291906200020b565b506000805b84518161ffff1610156200017a57848161ffff16815181106200010257620001016200060a565b5b602002602001015160038261ffff16815481106200012557620001246200060a565b5b9060005260206000200181905550848161ffff16815181106200014d576200014c6200060a565b5b60200260200101518262000162919062000668565b915080806200017190620006d3565b915050620000da565b50825181146200018957600080fd5b60006004819055506000600560006101000a81548161ffff021916908361ffff1602179055505050505062000702565b828054828255906000526020600020908101928215620001f8579160200282015b82811115620001f7578251825591602001919060010190620001da565b5b5090506200020791906200025d565b5090565b8280548282559060005260206000209081019282156200024a579160200282015b82811115620002495782518255916020019190600101906200022c565b5b5090506200025991906200027c565b5090565b5b80821115620002785760008160009055506001016200025e565b5090565b5b80821115620002975760008160009055506001016200027d565b5090565b6000604051905090565b600080fd5b600080fd5b600080fd5b6000601f19601f8301169050919050565b7f4e487b7100000000000000000000000000000000000000000000000000000000600052604160045260246000fd5b620002ff82620002b4565b810181811067ffffffffffffffff82111715620003215762000320620002c5565b5b80604052505050565b6000620003366200029b565b9050620003448282620002f4565b919050565b600067ffffffffffffffff821115620003675762000366620002c5565b5b602082029050602081019050919050565b600080fd5b6000819050919050565b62000392816200037d565b81146200039e57600080fd5b50565b600081519050620003b28162000387565b92915050565b6000620003cf620003c98462000349565b6200032a565b90508083825260208201905060208402830185811115620003f557620003f462000378565b5b835b818110156200042257806200040d8882620003a1565b845260208401935050602081019050620003f7565b5050509392505050565b600082601f830112620004445762000443620002af565b5b815162000456848260208601620003b8565b91505092915050565b600067ffffffffffffffff8211156200047d576200047c620002c5565b5b602082029050602081019050919050565b6000819050919050565b620004a3816200048e565b8114620004af57600080fd5b50565b600081519050620004c38162000498565b92915050565b6000620004e0620004da846200045f565b6200032a565b9050808382526020820190506020840283018581111562000506576200050562000378565b5b835b818110156200053357806200051e8882620004b2565b84526020840193505060208101905062000508565b5050509392505050565b600082601f830112620005555762000554620002af565b5b815162000567848260208601620004c9565b91505092915050565b6000806000606084860312156200058c576200058b620002a5565b5b600084015167ffffffffffffffff811115620005ad57620005ac620002aa565b5b620005bb868287016200042c565b935050602084015167ffffffffffffffff811115620005df57620005de620002aa565b5b620005ed868287016200053d565b92505060406200060086828701620004b2565b9150509250925092565b7f4e487b7100000000000000000000000000000000000000000000000000000000600052603260045260246000fd5b7f4e487b7100000000000000000000000000000000000000000000000000000000600052601160045260246000fd5b600062000675826200037d565b915062000682836200037d565b9250827fffffffffffffffffffffffffffffffffffffffffffffffffffffffffffffffff03821115620006ba57620006b962000639565b5b828201905092915050565b600061ffff82169050919050565b6000620006e082620006c5565b915061ffff8203620006f757620006f662000639565b5b600182019050919050565b610c3f80620007126000396000f3fe608060405234801561001057600080fd5b50600436106100625760003560e01c806324eb95fe1461006757806326fe8a46146100975780633a52968e146100b5578063ba1a284b146100d3578063c957accb146100ef578063e83cc2221461010d575b600080fd5b610081600480360381019061007c91906105cc565b61012b565b60405161008e9190610608565b60405180910390f35b61009f61014f565b6040516100ac919061063c565b60405180910390f35b6100bd610155565b6040516100ca919061063c565b60405180910390f35b6100ed60048036038101906100e891906106bc565b61015b565b005b6100f7610312565b60405161010491906107c7565b60405180910390f35b61011561036a565b60405161012291906107c7565b60405180910390f35b6003818154811061013b57600080fd5b906000526020600020016000915090505481565b60005481565b60045481565b600054600454036101f9576002600190805461017892919061051d565b5060016004819055506001600560009054906101000a900461ffff1661019e9190610826565b600560006101000a81548161ffff021916908361ffff1602179055506101f86040518060400160405280600981526020017f4920616d206865726500000000000000000000000000000000000000000000008152506103c2565b5b60005b828290508110156102d7576001600454610216919061085e565b6004546002838154811061022d5761022c6108f2565b5b90600052602060002001546102429190610921565b848484818110610255576102546108f2565b5b90506020020135610266919061085e565b6102709190610a67565b60028281548110610284576102836108f2565b5b906000526020600020018190555061029d60045461045b565b6102c4600282815481106102b4576102b36108f2565b5b906000526020600020015461045b565b80806102cf90610ad1565b9150506101fc565b506102f9604051806060016040528060358152602001610bd5603591396103c2565b6001600454610308919061085e565b6004819055505050565b6060600180548060200260200160405190810160405280929190818152602001828054801561036057602002820191906000526020600020905b81548152602001906001019080831161034c575b5050505050905090565b606060028054806020026020016040519081016040528092919081815260200182805480156103b857602002820191906000526020600020905b8154815260200190600101908083116103a4575b5050505050905090565b610458816040516024016103d69190610bb2565b6040516020818303038152906040527f41304fac000000000000000000000000000000000000000000000000000000007bffffffffffffffffffffffffffffffffffffffffffffffffffffffff19166020820180517bffffffffffffffffffffffffffffffffffffffffffffffffffffffff83818316178352505050506104f4565b50565b6104f18160405160240161046f919061063c565b6040516020818303038152906040527f4e0c1d1d000000000000000000000000000000000000000000000000000000007bffffffffffffffffffffffffffffffffffffffffffffffffffffffff19166020820180517bffffffffffffffffffffffffffffffffffffffffffffffffffffffff83818316178352505050506104f4565b50565b60008151905060006a636f6e736f6c652e6c6f679050602083016000808483855afa5050505050565b82805482825590600052602060002090810192821561055e5760005260206000209182015b8281111561055d578254825591600101919060010190610542565b5b50905061056b919061056f565b5090565b5b80821115610588576000816000905550600101610570565b5090565b600080fd5b600080fd5b6000819050919050565b6105a981610596565b81146105b457600080fd5b50565b6000813590506105c6816105a0565b92915050565b6000602082840312156105e2576105e161058c565b5b60006105f0848285016105b7565b91505092915050565b61060281610596565b82525050565b600060208201905061061d60008301846105f9565b92915050565b6000819050919050565b61063681610623565b82525050565b6000602082019050610651600083018461062d565b92915050565b600080fd5b600080fd5b600080fd5b60008083601f84011261067c5761067b610657565b5b8235905067ffffffffffffffff8111156106995761069861065c565b5b6020830191508360208202830111156106b5576106b4610661565b5b9250929050565b600080602083850312156106d3576106d261058c565b5b600083013567ffffffffffffffff8111156106f1576106f0610591565b5b6106fd85828601610666565b92509250509250929050565b600081519050919050565b600082825260208201905092915050565b6000819050602082019050919050565b61073e81610623565b82525050565b60006107508383610735565b60208301905092915050565b6000602082019050919050565b600061077482610709565b61077e8185610714565b935061078983610725565b8060005b838110156107ba5781516107a18882610744565b97506107ac8361075c565b92505060018101905061078d565b5085935050505092915050565b600060208201905081810360008301526107e18184610769565b905092915050565b600061ffff82169050919050565b7f4e487b7100000000000000000000000000000000000000000000000000000000600052601160045260246000fd5b6000610831826107e9565b915061083c836107e9565b92508261ffff03821115610853576108526107f7565b5b828201905092915050565b600061086982610623565b915061087483610623565b9250817f7fffffffffffffffffffffffffffffffffffffffffffffffffffffffffffffff038313600083121516156108af576108ae6107f7565b5b817f80000000000000000000000000000000000000000000000000000000000000000383126000831216156108e7576108e66107f7565b5b828201905092915050565b7f4e487b7100000000000000000000000000000000000000000000000000000000600052603260045260246000fd5b600061092c82610623565b915061093783610623565b9250827f7fffffffffffffffffffffffffffffffffffffffffffffffffffffffffffffff0482116000841360008413161615610976576109756107f7565b5b817f800000000000000000000000000000000000000000000000000000000000000005831260008412600084131616156109b3576109b26107f7565b5b827f800000000000000000000000000000000000000000000000000000000000000005821260008413600084121616156109f0576109ef6107f7565b5b827f7fffffffffffffffffffffffffffffffffffffffffffffffffffffffffffffff0582126000841260008412161615610a2d57610a2c6107f7565b5b828202905092915050565b7f4e487b7100000000000000000000000000000000000000000000000000000000600052601260045260246000fd5b6000610a7282610623565b9150610a7d83610623565b925082610a8d57610a8c610a38565b5b600160000383147f800000000000000000000000000000000000000000000000000000000000000083141615610ac657610ac56107f7565b5b828205905092915050565b6000610adc82610596565b91507fffffffffffffffffffffffffffffffffffffffffffffffffffffffffffffffff8203610b0e57610b0d6107f7565b5b600182019050919050565b600081519050919050565b600082825260208201905092915050565b60005b83811015610b53578082015181840152602081019050610b38565b83811115610b62576000848401525b50505050565b6000601f19601f8301169050919050565b6000610b8482610b19565b610b8e8185610b24565b9350610b9e818560208601610b35565b610ba781610b68565b840191505092915050565b60006020820190508181036000830152610bcc8184610b79565b90509291505056fe2d2d2d2d2d2d2d2d2d2d2d2d2d2d2d2d2d2d2d2d2d2d2d2d2d2d2d2d2d2d2d2d2d2d2d2d2d2d2d2d2d2d2d2d2d2d2d2d2d2d2d2d2da264697066735822122099c42ac33cfe8c5bdd3ae7c47d45bcf961fb6ee3dfcbba9431c88eeed72265d864736f6c634300080d0033",
  "linkReferences": {},
  "deployedLinkReferences": {}
}