{
  "_format": "hh-sol-artifact-1",
  "contractName": "Federator",
  "sourceName": "contracts/Federator.sol",
  "abi": [
    {
      "inputs": [
        {
          "internalType": "uint128[]",
          "name": "model_structure",
          "type": "uint128[]"
        },
        {
          "internalType": "int128[]",
          "name": "model_parameters",
          "type": "int128[]"
        },
        {
          "internalType": "int128",
          "name": "max_batch_size_",
          "type": "int128"
        }
      ],
      "stateMutability": "nonpayable",
      "type": "constructor"
    },
    {
      "inputs": [],
      "name": "batch_size",
      "outputs": [
        {
          "internalType": "int128",
          "name": "",
          "type": "int128"
        }
      ],
      "stateMutability": "view",
      "type": "function"
    },
    {
      "inputs": [
        {
          "internalType": "uint256",
          "name": "",
          "type": "uint256"
        }
      ],
      "name": "dimensions",
      "outputs": [
        {
          "internalType": "uint128",
          "name": "",
          "type": "uint128"
        }
      ],
      "stateMutability": "view",
      "type": "function"
    },
    {
      "inputs": [],
      "name": "get_running_weights",
      "outputs": [
        {
          "internalType": "int128[]",
          "name": "weights",
          "type": "int128[]"
        }
      ],
      "stateMutability": "view",
      "type": "function"
    },
    {
      "inputs": [],
      "name": "get_weights",
      "outputs": [
        {
          "internalType": "int128[]",
          "name": "weights",
          "type": "int128[]"
        }
      ],
      "stateMutability": "view",
      "type": "function"
    },
    {
      "inputs": [],
      "name": "max_batch_size",
      "outputs": [
        {
          "internalType": "int128",
          "name": "",
          "type": "int128"
        }
      ],
      "stateMutability": "view",
      "type": "function"
    },
    {
      "inputs": [
        {
          "internalType": "int128[]",
          "name": "new_model_parameters",
          "type": "int128[]"
        }
      ],
      "name": "update",
      "outputs": [],
      "stateMutability": "nonpayable",
      "type": "function"
    }
  ],
  "bytecode": "0x60806040523480156200001157600080fd5b5060405162001b3a38038062001b3a83398181016040528101906200003791906200090e565b806000806101000a8154816fffffffffffffffffffffffffffffffff0219169083600f0b6fffffffffffffffffffffffffffffffff160217905550825167ffffffffffffffff81111562000090576200008f6200064e565b5b604051908082528060200260200182016040528015620000bf5781602001602082028036833780820191505090505b5060039080519060200190620000d79291906200044c565b506000805b84518161ffff161015620001b957848161ffff1681518110620001045762000103620009a8565b5b602002602001015160038261ffff1681548110620001275762000126620009a8565b5b90600052602060002090600291828204019190066010026101000a8154816fffffffffffffffffffffffffffffffff02191690836fffffffffffffffffffffffffffffffff160217905550848161ffff16815181106200018c576200018b620009a8565b5b602002602001015182620001a1919062000a06565b91508080620001b09062000a61565b915050620000dc565b508251816fffffffffffffffffffffffffffffffff1614620001da57600080fd5b825167ffffffffffffffff811115620001f857620001f76200064e565b5b604051908082528060200260200182016040528015620002275781602001602082028036833780820191505090505b50600190805190602001906200023f92919062000527565b50825167ffffffffffffffff8111156200025e576200025d6200064e565b5b6040519080825280602002602001820160405280156200028d5781602001602082028036833780820191505090505b5060029080519060200190620002a592919062000527565b5060005b83518161ffff161015620003e357838161ffff1681518110620002d157620002d0620009a8565b5b602002602001015160018261ffff1681548110620002f457620002f3620009a8565b5b90600052602060002090600291828204019190066010026101000a8154816fffffffffffffffffffffffffffffffff0219169083600f0b6fffffffffffffffffffffffffffffffff160217905550838161ffff16815181106200035c576200035b620009a8565b5b602002602001015160028261ffff16815481106200037f576200037e620009a8565b5b90600052602060002090600291828204019190066010026101000a8154816fffffffffffffffffffffffffffffffff0219169083600f0b6fffffffffffffffffffffffffffffffff1602179055508080620003da9062000a61565b915050620002a9565b506001600460006101000a8154816fffffffffffffffffffffffffffffffff0219169083600f0b6fffffffffffffffffffffffffffffffff1602179055506000600460106101000a81548161ffff021916908360010b61ffff1602179055505050505062000a90565b82805482825590600052602060002090600101600290048101928215620005145791602002820160005b83821115620004d457835183826101000a8154816fffffffffffffffffffffffffffffffff02191690836fffffffffffffffffffffffffffffffff1602179055509260200192601001602081600f0104928301926001030262000476565b8015620005125782816101000a8154906fffffffffffffffffffffffffffffffff0219169055601001602081600f01049283019260010302620004d4565b505b50905062000523919062000605565b5090565b82805482825590600052602060002090600101600290048101928215620005f25791602002820160005b83821115620005b257835183826101000a8154816fffffffffffffffffffffffffffffffff0219169083600f0b6fffffffffffffffffffffffffffffffff1602179055509260200192601001602081600f0104928301926001030262000551565b8015620005f05782816101000a8154906fffffffffffffffffffffffffffffffff0219169055601001602081600f01049283019260010302620005b2565b505b50905062000601919062000605565b5090565b5b808211156200062057600081600090555060010162000606565b5090565b6000604051905090565b600080fd5b600080fd5b600080fd5b6000601f19601f8301169050919050565b7f4e487b7100000000000000000000000000000000000000000000000000000000600052604160045260246000fd5b62000688826200063d565b810181811067ffffffffffffffff82111715620006aa57620006a96200064e565b5b80604052505050565b6000620006bf62000624565b9050620006cd82826200067d565b919050565b600067ffffffffffffffff821115620006f057620006ef6200064e565b5b602082029050602081019050919050565b600080fd5b60006fffffffffffffffffffffffffffffffff82169050919050565b6200072d8162000706565b81146200073957600080fd5b50565b6000815190506200074d8162000722565b92915050565b60006200076a6200076484620006d2565b620006b3565b9050808382526020820190506020840283018581111562000790576200078f62000701565b5b835b81811015620007bd5780620007a888826200073c565b84526020840193505060208101905062000792565b5050509392505050565b600082601f830112620007df57620007de62000638565b5b8151620007f184826020860162000753565b91505092915050565b600067ffffffffffffffff8211156200081857620008176200064e565b5b602082029050602081019050919050565b600081600f0b9050919050565b620008418162000829565b81146200084d57600080fd5b50565b600081519050620008618162000836565b92915050565b60006200087e6200087884620007fa565b620006b3565b90508083825260208201905060208402830185811115620008a457620008a362000701565b5b835b81811015620008d15780620008bc888262000850565b845260208401935050602081019050620008a6565b5050509392505050565b600082601f830112620008f357620008f262000638565b5b81516200090584826020860162000867565b91505092915050565b6000806000606084860312156200092a57620009296200062e565b5b600084015167ffffffffffffffff8111156200094b576200094a62000633565b5b6200095986828701620007c7565b935050602084015167ffffffffffffffff8111156200097d576200097c62000633565b5b6200098b86828701620008db565b92505060406200099e8682870162000850565b9150509250925092565b7f4e487b7100000000000000000000000000000000000000000000000000000000600052603260045260246000fd5b7f4e487b7100000000000000000000000000000000000000000000000000000000600052601160045260246000fd5b600062000a138262000706565b915062000a208362000706565b9250826fffffffffffffffffffffffffffffffff0382111562000a485762000a47620009d7565b5b828201905092915050565b600061ffff82169050919050565b600062000a6e8262000a53565b915061ffff820362000a855762000a84620009d7565b5b600182019050919050565b61109a8062000aa06000396000f3fe608060405234801561001057600080fd5b50600436106100625760003560e01c806324eb95fe1461006757806326fe8a46146100975780633a52968e146100b557806342944957146100d3578063c957accb146100ef578063e83cc2221461010d575b600080fd5b610081600480360381019061007c9190610a07565b61012b565b60405161008e9190610a5f565b60405180910390f35b61009f610171565b6040516100ac9190610a96565b60405180910390f35b6100bd610182565b6040516100ca9190610a96565b60405180910390f35b6100ed60048036038101906100e89190610b16565b610195565b005b6100f76104dd565b6040516101049190610c21565b60405180910390f35b61011561055b565b6040516101229190610c21565b60405180910390f35b6003818154811061013b57600080fd5b9060005260206000209060029182820401919006601002915054906101000a90046fffffffffffffffffffffffffffffffff1681565b60008054906101000a9004600f0b81565b600460009054906101000a9004600f0b81565b60008054906101000a9004600f0b600f0b600460009054906101000a9004600f0b600f0b0361028857600260019080546101d092919061094a565b506001600460006101000a8154816fffffffffffffffffffffffffffffffff0219169083600f0b6fffffffffffffffffffffffffffffffff1602179055506001600460109054906101000a900460010b61022a9190610c7f565b600460106101000a81548161ffff021916908360010b61ffff1602179055506102876040518060400160405280600981526020017f4920616d206865726500000000000000000000000000000000000000000000008152506105d9565b5b60005b82829050816fffffffffffffffffffffffffffffffff161015610460576103856103598484846fffffffffffffffffffffffffffffffff168181106102d3576102d2610cf5565b5b90506020020160208101906102e89190610d50565b6103546002856fffffffffffffffffffffffffffffffff168154811061031157610310610cf5565b5b90600052602060002090600291828204019190066010029054906101000a9004600f0b61034f600460009054906101000a9004600f0b600f0b610672565b6106c1565b61072c565b6103806001600460009054906101000a9004600f0b6103789190610d7d565b600f0b610672565b610793565b6002826fffffffffffffffffffffffffffffffff16815481106103ab576103aa610cf5565b5b90600052602060002090600291828204019190066010026101000a8154816fffffffffffffffffffffffffffffffff0219169083600f0b6fffffffffffffffffffffffffffffffff16021790555061044d6002826fffffffffffffffffffffffffffffffff168154811061042257610421610cf5565b5b90600052602060002090600291828204019190066010029054906101000a9004600f0b600f0b610888565b808061045890610e01565b91505061028b565b50610482604051806060016040528060358152602001611030603591396105d9565b6001600460009054906101000a9004600f0b61049e9190610d7d565b600460006101000a8154816fffffffffffffffffffffffffffffffff0219169083600f0b6fffffffffffffffffffffffffffffffff1602179055505050565b6060600180548060200260200160405190810160405280929190818152602001828054801561055157602002820191906000526020600020906000905b82829054906101000a9004600f0b600f0b81526020019060100190602082600f0104928301926001038202915080841161051a5790505b5050505050905090565b606060028054806020026020016040519081016040528092919081815260200182805480156105cf57602002820191906000526020600020906000905b82829054906101000a9004600f0b600f0b81526020019060100190602082600f010492830192600103820291508084116105985790505b5050505050905090565b61066f816040516024016105ed9190610ed2565b6040516020818303038152906040527f41304fac000000000000000000000000000000000000000000000000000000007bffffffffffffffffffffffffffffffffffffffffffffffffffffffff19166020820180517bffffffffffffffffffffffffffffffffffffffffffffffffffffffff8381831617835250505050610921565b50565b60007fffffffffffffffffffffffffffffffffffffffffffffffff800000000000000082121580156106ac5750677fffffffffffffff8213155b6106b557600080fd5b604082901b9050919050565b600080604083600f0b85600f0b02901d90507fffffffffffffffffffffffffffffffff80000000000000000000000000000000600f0b811215801561071957506f7fffffffffffffffffffffffffffffff600f0b8113155b61072257600080fd5b8091505092915050565b60008082600f0b84600f0b0190507fffffffffffffffffffffffffffffffff80000000000000000000000000000000600f0b811215801561078057506f7fffffffffffffffffffffffffffffff600f0b8113155b61078957600080fd5b8091505092915050565b60008082600f0b036107da576040517f08c379a00000000000000000000000000000000000000000000000000000000081526004016107d190610f40565b60405180910390fd5b600082600f0b604085600f0b901b816107f6576107f5610f60565b5b0590507fffffffffffffffffffffffffffffffff80000000000000000000000000000000600f0b811215801561083f57506f7fffffffffffffffffffffffffffffff600f0b8113155b61087e576040517f08c379a000000000000000000000000000000000000000000000000000000000815260040161087590610fdb565b60405180910390fd5b8091505092915050565b61091e8160405160240161089c9190611014565b6040516020818303038152906040527f4e0c1d1d000000000000000000000000000000000000000000000000000000007bffffffffffffffffffffffffffffffffffffffffffffffffffffffff19166020820180517bffffffffffffffffffffffffffffffffffffffffffffffffffffffff8381831617835250505050610921565b50565b60008151905060006a636f6e736f6c652e6c6f679050602083016000808483855afa5050505050565b82805482825590600052602060002090600101600290048101928215610999576000526020600020916001016002900482015b8281111561099857825482559160010191906001019061097d565b5b5090506109a691906109aa565b5090565b5b808211156109c35760008160009055506001016109ab565b5090565b600080fd5b600080fd5b6000819050919050565b6109e4816109d1565b81146109ef57600080fd5b50565b600081359050610a01816109db565b92915050565b600060208284031215610a1d57610a1c6109c7565b5b6000610a2b848285016109f2565b91505092915050565b60006fffffffffffffffffffffffffffffffff82169050919050565b610a5981610a34565b82525050565b6000602082019050610a746000830184610a50565b92915050565b600081600f0b9050919050565b610a9081610a7a565b82525050565b6000602082019050610aab6000830184610a87565b92915050565b600080fd5b600080fd5b600080fd5b60008083601f840112610ad657610ad5610ab1565b5b8235905067ffffffffffffffff811115610af357610af2610ab6565b5b602083019150836020820283011115610b0f57610b0e610abb565b5b9250929050565b60008060208385031215610b2d57610b2c6109c7565b5b600083013567ffffffffffffffff811115610b4b57610b4a6109cc565b5b610b5785828601610ac0565b92509250509250929050565b600081519050919050565b600082825260208201905092915050565b6000819050602082019050919050565b610b9881610a7a565b82525050565b6000610baa8383610b8f565b60208301905092915050565b6000602082019050919050565b6000610bce82610b63565b610bd88185610b6e565b9350610be383610b7f565b8060005b83811015610c14578151610bfb8882610b9e565b9750610c0683610bb6565b925050600181019050610be7565b5085935050505092915050565b60006020820190508181036000830152610c3b8184610bc3565b905092915050565b60008160010b9050919050565b7f4e487b7100000000000000000000000000000000000000000000000000000000600052601160045260246000fd5b6000610c8a82610c43565b9150610c9583610c43565b925081617fff03831360008312151615610cb257610cb1610c50565b5b817fffffffffffffffffffffffffffffffffffffffffffffffffffffffffffff8000038312600083121615610cea57610ce9610c50565b5b828201905092915050565b7f4e487b7100000000000000000000000000000000000000000000000000000000600052603260045260246000fd5b610d2d81610a7a565b8114610d3857600080fd5b50565b600081359050610d4a81610d24565b92915050565b600060208284031215610d6657610d656109c7565b5b6000610d7484828501610d3b565b91505092915050565b6000610d8882610a7a565b9150610d9383610a7a565b9250816f7fffffffffffffffffffffffffffffff03831360008312151615610dbe57610dbd610c50565b5b817fffffffffffffffffffffffffffffffff80000000000000000000000000000000038312600083121615610df657610df5610c50565b5b828201905092915050565b6000610e0c82610a34565b91506fffffffffffffffffffffffffffffffff8203610e2e57610e2d610c50565b5b600182019050919050565b600081519050919050565b600082825260208201905092915050565b60005b83811015610e73578082015181840152602081019050610e58565b83811115610e82576000848401525b50505050565b6000601f19601f8301169050919050565b6000610ea482610e39565b610eae8185610e44565b9350610ebe818560208601610e55565b610ec781610e88565b840191505092915050565b60006020820190508181036000830152610eec8184610e99565b905092915050565b7f4469766973696f6e206279207a65726f00000000000000000000000000000000600082015250565b6000610f2a601083610e44565b9150610f3582610ef4565b602082019050919050565b60006020820190508181036000830152610f5981610f1d565b9050919050565b7f4e487b7100000000000000000000000000000000000000000000000000000000600052601260045260246000fd5b7f4469766973696f6e206f766572666c6f77000000000000000000000000000000600082015250565b6000610fc5601183610e44565b9150610fd082610f8f565b602082019050919050565b60006020820190508181036000830152610ff481610fb8565b9050919050565b6000819050919050565b61100e81610ffb565b82525050565b60006020820190506110296000830184611005565b9291505056fe2d2d2d2d2d2d2d2d2d2d2d2d2d2d2d2d2d2d2d2d2d2d2d2d2d2d2d2d2d2d2d2d2d2d2d2d2d2d2d2d2d2d2d2d2d2d2d2d2d2d2d2d2da2646970667358221220ce4a7cf015e4fbeec3e434eb09f0e12322220762c51aacbc50bb5d98e0017cf464736f6c634300080d0033",
  "linkReferences": {},
  "deployedLinkReferences": {}
}