{
  "_format": "hh-sol-artifact-1",
  "contractName": "Federator",
  "sourceName": "contracts/Federator.sol",
  "abi": [
    {
      "inputs": [
        {
          "internalType": "int256[]",
          "name": "model_parameters",
          "type": "int256[]"
        },
        {
          "internalType": "int256[]",
          "name": "model_structure",
          "type": "int256[]"
        }
      ],
      "stateMutability": "nonpayable",
      "type": "constructor"
    },
    {
      "inputs": [],
      "name": "batch_size",
      "outputs": [
        {
          "internalType": "int256",
          "name": "",
          "type": "int256"
        }
      ],
      "stateMutability": "view",
      "type": "function"
    },
    {
      "inputs": [
        {
          "internalType": "uint256",
          "name": "",
          "type": "uint256"
        }
      ],
      "name": "dimensions",
      "outputs": [
        {
          "internalType": "int256",
          "name": "",
          "type": "int256"
        }
      ],
      "stateMutability": "view",
      "type": "function"
    },
    {
      "inputs": [],
      "name": "get_weights",
      "outputs": [
        {
          "internalType": "int256[]",
          "name": "weights",
          "type": "int256[]"
        }
      ],
      "stateMutability": "view",
      "type": "function"
    },
    {
      "inputs": [
        {
          "internalType": "uint256",
          "name": "",
          "type": "uint256"
        }
      ],
      "name": "global_model_parameters",
      "outputs": [
        {
          "internalType": "int256",
          "name": "",
          "type": "int256"
        }
      ],
      "stateMutability": "view",
      "type": "function"
    },
    {
      "inputs": [
        {
          "internalType": "uint256",
          "name": "",
          "type": "uint256"
        }
      ],
      "name": "running_model_parameters",
      "outputs": [
        {
          "internalType": "int256",
          "name": "",
          "type": "int256"
        }
      ],
      "stateMutability": "view",
      "type": "function"
    },
    {
      "inputs": [
        {
          "internalType": "int256[]",
          "name": "new_model_parameters",
          "type": "int256[]"
        }
      ],
      "name": "update_model",
      "outputs": [],
      "stateMutability": "nonpayable",
      "type": "function"
    }
  ],
  "bytecode": "0x60806040523480156200001157600080fd5b5060405162000e0b38038062000e0b8339818101604052810190620000379190620003a5565b81600090805190602001906200004f92919062000170565b5081600190805190602001906200006892919062000170565b50805167ffffffffffffffff8111156200008757620000866200020b565b5b604051908082528060200260200182016040528015620000b65781602001602082028036833780820191505090505b5060029080519060200190620000ce92919062000170565b5060005b81518161ffff1610156200014157818161ffff1681518110620000fa57620000f96200042a565b5b602002602001015160028261ffff16815481106200011d576200011c6200042a565b5b90600052602060002001819055508080620001389062000496565b915050620000d2565b5060006003819055506000600460006101000a81548161ffff021916908361ffff1602179055505050620004c5565b828054828255906000526020600020908101928215620001af579160200282015b82811115620001ae57825182559160200191906001019062000191565b5b509050620001be9190620001c2565b5090565b5b80821115620001dd576000816000905550600101620001c3565b5090565b6000604051905090565b600080fd5b600080fd5b600080fd5b6000601f19601f8301169050919050565b7f4e487b7100000000000000000000000000000000000000000000000000000000600052604160045260246000fd5b6200024582620001fa565b810181811067ffffffffffffffff821117156200026757620002666200020b565b5b80604052505050565b60006200027c620001e1565b90506200028a82826200023a565b919050565b600067ffffffffffffffff821115620002ad57620002ac6200020b565b5b602082029050602081019050919050565b600080fd5b6000819050919050565b620002d881620002c3565b8114620002e457600080fd5b50565b600081519050620002f881620002cd565b92915050565b6000620003156200030f846200028f565b62000270565b905080838252602082019050602084028301858111156200033b576200033a620002be565b5b835b81811015620003685780620003538882620002e7565b8452602084019350506020810190506200033d565b5050509392505050565b600082601f8301126200038a5762000389620001f5565b5b81516200039c848260208601620002fe565b91505092915050565b60008060408385031215620003bf57620003be620001eb565b5b600083015167ffffffffffffffff811115620003e057620003df620001f0565b5b620003ee8582860162000372565b925050602083015167ffffffffffffffff811115620004125762000411620001f0565b5b620004208582860162000372565b9150509250929050565b7f4e487b7100000000000000000000000000000000000000000000000000000000600052603260045260246000fd5b7f4e487b7100000000000000000000000000000000000000000000000000000000600052601160045260246000fd5b600061ffff82169050919050565b6000620004a38262000488565b915061ffff8203620004ba57620004b962000459565b5b600182019050919050565b61093680620004d56000396000f3fe608060405234801561001057600080fd5b50600436106100625760003560e01c806314a1ca871461006757806324eb95fe146100975780632ffa0a51146100c75780633a52968e146100f75780638fff5fce14610115578063c957accb14610131575b600080fd5b610081600480360381019061007c91906103dd565b61014f565b60405161008e9190610423565b60405180910390f35b6100b160048036038101906100ac91906103dd565b610173565b6040516100be9190610423565b60405180910390f35b6100e160048036038101906100dc91906103dd565b610197565b6040516100ee9190610423565b60405180910390f35b6100ff6101bb565b60405161010c9190610423565b60405180910390f35b61012f600480360381019061012a91906104a3565b6101c1565b005b6101396102d6565b60405161014691906105ae565b60405180910390f35b6000818154811061015f57600080fd5b906000526020600020016000915090505481565b6002818154811061018357600080fd5b906000526020600020016000915090505481565b600181815481106101a757600080fd5b906000526020600020016000915090505481565b60035481565b600a6003540361022457600160009080546101dd92919061032e565b5060006003819055506001600460009054906101000a900461ffff16610203919061060d565b600460006101000a81548161ffff021916908361ffff1602179055506102d2565b60005b828290508110156102d05760016003546102419190610645565b60035460018381548110610258576102576106d9565b5b906000526020600020015461026d9190610708565b8484848181106102805761027f6106d9565b5b905060200201356102919190610645565b61029b919061084e565b600182815481106102af576102ae6106d9565b5b906000526020600020018190555080806102c8906108b8565b915050610227565b505b5050565b6060600080548060200260200160405190810160405280929190818152602001828054801561032457602002820191906000526020600020905b815481526020019060010190808311610310575b5050505050905090565b82805482825590600052602060002090810192821561036f5760005260206000209182015b8281111561036e578254825591600101919060010190610353565b5b50905061037c9190610380565b5090565b5b80821115610399576000816000905550600101610381565b5090565b600080fd5b600080fd5b6000819050919050565b6103ba816103a7565b81146103c557600080fd5b50565b6000813590506103d7816103b1565b92915050565b6000602082840312156103f3576103f261039d565b5b6000610401848285016103c8565b91505092915050565b6000819050919050565b61041d8161040a565b82525050565b60006020820190506104386000830184610414565b92915050565b600080fd5b600080fd5b600080fd5b60008083601f8401126104635761046261043e565b5b8235905067ffffffffffffffff8111156104805761047f610443565b5b60208301915083602082028301111561049c5761049b610448565b5b9250929050565b600080602083850312156104ba576104b961039d565b5b600083013567ffffffffffffffff8111156104d8576104d76103a2565b5b6104e48582860161044d565b92509250509250929050565b600081519050919050565b600082825260208201905092915050565b6000819050602082019050919050565b6105258161040a565b82525050565b6000610537838361051c565b60208301905092915050565b6000602082019050919050565b600061055b826104f0565b61056581856104fb565b93506105708361050c565b8060005b838110156105a1578151610588888261052b565b975061059383610543565b925050600181019050610574565b5085935050505092915050565b600060208201905081810360008301526105c88184610550565b905092915050565b600061ffff82169050919050565b7f4e487b7100000000000000000000000000000000000000000000000000000000600052601160045260246000fd5b6000610618826105d0565b9150610623836105d0565b92508261ffff0382111561063a576106396105de565b5b828201905092915050565b60006106508261040a565b915061065b8361040a565b9250817f7fffffffffffffffffffffffffffffffffffffffffffffffffffffffffffffff03831360008312151615610696576106956105de565b5b817f80000000000000000000000000000000000000000000000000000000000000000383126000831216156106ce576106cd6105de565b5b828201905092915050565b7f4e487b7100000000000000000000000000000000000000000000000000000000600052603260045260246000fd5b60006107138261040a565b915061071e8361040a565b9250827f7fffffffffffffffffffffffffffffffffffffffffffffffffffffffffffffff048211600084136000841316161561075d5761075c6105de565b5b817f8000000000000000000000000000000000000000000000000000000000000000058312600084126000841316161561079a576107996105de565b5b827f800000000000000000000000000000000000000000000000000000000000000005821260008413600084121616156107d7576107d66105de565b5b827f7fffffffffffffffffffffffffffffffffffffffffffffffffffffffffffffff0582126000841260008412161615610814576108136105de565b5b828202905092915050565b7f4e487b7100000000000000000000000000000000000000000000000000000000600052601260045260246000fd5b60006108598261040a565b91506108648361040a565b9250826108745761087361081f565b5b600160000383147f8000000000000000000000000000000000000000000000000000000000000000831416156108ad576108ac6105de565b5b828205905092915050565b60006108c3826103a7565b91507fffffffffffffffffffffffffffffffffffffffffffffffffffffffffffffffff82036108f5576108f46105de565b5b60018201905091905056fea26469706673582212208764adbe5359c629615e77e692050121864dc37b2c2fb2d6755ac02d99a4f6ee64736f6c634300080d0033",
  "linkReferences": {},
  "deployedLinkReferences": {}
}